:020000040800F2
:20000000F0FF0010D1950508D12905080DD60108719605087196050871960508000000003F
:20002000000000000000000000000000D5290508D929050800000000DD2905088DA5010858
:20004000719605087196050871960508719605087196050871960508F1B20008F9B20008CA
:2000600001B3000809B3000811B300082DB0000841B0000855B0000869B000087DB00008F3
:2000800091B00008A5B00008719605087196050871960508719605087196050819B3000882
:2000A00031C9000891C8000841C9000881C80008B9C80008C9C80008D9C800084DA70008B3
:2000C000D1BD000855A70008D5BD00087196050871960508C19E0108C59F0108C9A001087D
:2000E00021B30008719605080D40050851C9000809C9000861C90008F9C80008B9B000084E
:200100007196050871960508E9C8000871960508CDA10108D1A201087196050871960508CF
:20012000CDB00008E1B00008F5B0000809B100081DB1000871960508719605087196050820
:20014000719605087196050871960508E129050831B1000845B1000859B10008D5A30108D1
:200160005DA70008D9BD00087196050871960508719605087196050871960508719605085D
:200180007196050871960508FFFFFFFFFFFFFFFFFFFFFFFFFFFFFFFFFFFFFFFFFFFFFFFF4F
:2001A000FFFFFFFFFFFFFFFFFFFFFFFFFFFFFFFFFFFFFFFFFFFFFFFFFFFFFFFFFFFFFFFF5F
:2001C000FFFFFFFFFFFFFFFFFFFFFFFFFFFFFFFFFFFFFFFFFFFFFFFFFFFFFFFFFFFFFFFF3F
:2001E000FFFFFFFFFFFFFFFFFFFFFFFFFFFFFFFFFFFFFFFFFFFFFFFFFFFFFFFFFFFFFFFF1F
:20020000FFFFFFFFFFFFFFFFFFFFFFFFFFFFFFFFFFFFFFFFFFFFFFFFFFFFFFFFFFFFFFFFFE
:020000040800F2
:020000040800F2
:20400000B1BE220122020000000000000000000000000000000000000000000000000000EA
:20402000000000000000000000000000000000000000000000000000000000000000000080
:20404000000000000000000000000000000000000000000000000000000000000000000060
:20406000000000000000000000000000000000000000000000000000000000000000000040
:204080000000000000000000000042414E44312020200042414E44322020200042414E44BE
:2040A000332020200042414E44342020200042414E44352020200042414E4436202020006F
:2040C00042414E44372020200042414E44382020200031323334353637383100320033004D
:2040E0003400350036003700380000000000000000000000000000000000000000000000B2
:20410000000000004C5630004C5631004C5632004C5633004C5634004C5635004C563600CC
:204120004C5637001C001F020000FFFFFFFFFFFFFFFFFFFFFFFFFFFFFFFFFFFFFFFFFFFF7F
:204140003E0018000400000103020405060709000000000001006400DC051A046C070019F0
:20416000750343080E000001000000001E1E1E7D010100000000000000000000000016007E
:204180001B02000006000000E803000000000000000000000A0028020000000000000A00D3
:2041A00027020000000000001000000201000000000000000102030042001A02000000005F
:2041C000000000000000000000000000000000000000000000000000000000000000424558
:2041E00046480042455441465056463430350000000000000000000001000A002E0200000F
:20420000000000008600040000000000000000000000000000000000000000000000000014
:2042200000000000000000000000000000000000000000000000000000000000000000007E
:2042400000000000000000000000000000000000000000000000000000000000000000005E
:2042600000000000000000000000000000000000000000000000000000000000000000003E
:204280000000000000000000000022001C0200000002011400003404000000008C0A0100F8
:2042A0000000000000000000000000000E002600030002032300000100001500080201007E
:2042C000151617FFFF2D2E2FFFFF3A3B3CFFFF2A000A000900300000000000F40100000005
:2042E00000000000000000020000029E077D000000F40100010501640043000302010000EF
:2043000000000000000000000000000000000000000000000000000000000000000000009D
:2043200000000000000000000000000000000000000000000000000000000001A600FD07D2
:204340000100C000E2093909B900390155010E0ECF0DF609AF0D5501010A55015501550110
:20436000550155015501550155015501D53955015501550155015501550155015501550125
:20438000550155015501550181005501550155015501E10055015501550155015501A209B2
:2043A00055015501550155015501550155015501820955018E00550155013801550155014D
:2043C00055015501A000550155015501550155015501550155015501550155015501550133
:2043E00055010A0013000100080445107A00F5010C00980864001401000A010A0000FF1F20
:204400000400142800002C3700000000FFFFFFFF46000102000000000000000000000000B4
:2044200000000000000000000000000000000000000000000000000000000000000000007C
:20444000000000000000000050009EFF040000FFFFFFFF0300000005180B0C000000000137
:20446000C800413514000900020200000300001200F60102000000000001000000000000CE
:20448000000A0012020100FFFFFFFF0E001102000000000000010101010C00F801030002D2
:2044A00001F4011400120002000100B400000000000000000000001A00FE010000013200DD
:2044C00030013100000200000000000000FF01FF00180006020100282900002003000000E4
:2044E0000020030000000020030C00F701000024010000000014001A0000007E05EA05B4F9
:20450000053200E803D00700000B001400010003000023002700FD01000019002A100036AE
:2045200000000000001A002B114237000000000000003900003800000000000C001D020010
:20454000000000000000000A00F90100002500000016001200030000000601000005533474
:20456000303500000801000A00FA0100002C0200000E000500030000000000020100000A77
:204580000013020000000001352E0006000200E001060000020100202113123818000000FA
:2045A00002000203000104050607007E042E04D007E803A8070C004500160200002802FF26
:2045C0003802FF2002002102001301011201002601001801FF1901001A01000000000000C1
:2045E0000000000000000000000000000000000000000000000000000000000008000E02A3
:204600000000000028002F0002005061766F205069636F204949000000000000000000004E
:2046200000000000000000000000000076012102000000408002104080020000000000004C
:2046400000000000000000000000000000000000000000000000000000000000000000005A
:2046600000000000000000000000000000000000000000000000000000000000000000003A
:2046800000000000000000000000000000000000000000000000000000000000000000001A
:2046A0000000000000000000000000000000000000000000000000000000000000000000FA
:2046C0000000000000000000000000000000000000000000000000000000000000000000DA
:2046E0000000000000000000000000000000000000000000000000000000000000000000BA
:20470000000000000000000000000000000000000000000000000000000000000000000099
:20472000000000000000000000000000000000000000000000000000FFFF000000FF1E005E
:2047400000FF3C0000FF5A0000FF780000FF960000FFB40000FFD20000FFF00000FF0E0138
:2047600000FF2C0100FF4A0100FF0000000000000000010B020D0A03050B030D0A030A0B5A
:20478000040D0A03080B040D0A03070B030D0A03000000000000060A01000002030600007F
:2047A000000316002C000000E803D007E803D007E803D007E803D007320125000200000052
:2047C0000000000000000000000000000000000000000000000000000000000000000000D9
:2047E0000000000000000000000000000000000000000000000000000000000000000000B9
:20480000000000000000000000000000000000000000000000000000000000000000000098
:20482000000000000000000000000000000000000000000000000000000000000000000078
:20484000000000000000000000000000000000000000000000000000000000000000000058
:20486000000000000000000000000000000000000000000000000000000000000000000038
:20488000000000000000000000000000000000000000000000000000000000000000000018
:2048A0000000000000000000000000000000000000000000000000000000000000000000F8
:2048C0000000000000000000000000000000000000000000000000000000000000000000D8
:2048E000000000000000000000002A002B000000001E001E001E0005011E011E011E011E88
:20490000011E011E011E011E011E011E011E011E011E011E0A0027000000200300007E008F
:204920000C0006003200030707070000004343430064CE07CE07CE0700000000000000006F
:2049400000003200030707070000004343430064CE07CE07CE070000000000000000000061
:204960003200030707070000004343430064CE07CE07CE070000000000000000000032000F
:20498000030707070000004343430064CE07CE07CE0700000000000000000000100003013F
:2049A0000100000000000000000000007E00290002000000203000000101001000000201E8
:2049C000102000000B02203000001B031E30000000000000000000000000000000000000DE
:2049E0000000000000000000000000000000000000000000000000000000000000000000B7
:204A0000000000000000000000000000000000000000000000000000000000000000000096
:204A200000000000000000000000120001000200E80364000F0A000105001E00160023009C
:204A4000020019000000F0FF1800F0FF01000000000020000B000300B80154015E012C017C
:204A600064010100000001000A019A01001E0A00000296020E00080064004B0000000000A2
:204A8000384632004300435444005000384600004300324B4B0032002800000000000055C0
:204AA000F4019001013C8700500000000000320090015E01F40100000A64C80090019600E8
:204AC00000050F00010F0114004B3200005A140B00004B009600001400280100C80032444B
:204AE000002514640000444A49204F3400000000323232963200013C0A0F5A050000027D0D
:204B000078468764002D016473056401410014055064F40114001A0400190F3264004B003F
:204B2000000000003F4F320040004F644D0050003F4F00004000324B4B0032002800000035
:204B400000000055F4019001013C8700500000000000320090015E01F40100000A64C80019
:204B60009001960000050F00010F0114004B3200005A140B00004B009600001400280100C1
:204B8000C800324D0025146400004F342050726F00000000323232963200013C0A0F5A054A
:204BA0000000028787467D69002801647805640146003C055064F40114001A0400190F328E
:204BC00064004B00000000002D50280078002F542E007D002D5000007800324B4B003200EC
:204BE0002800000000000055F4019001013C8700500000000000320090015E01F401000087
:204C00000A64C8009001960000050F00010F0114004B3200005A140B00004B009600001413
:204C200000280100C8001E220025146400000000000000000000000032323296320000192F
:204C4000070F5A0500000264646464646464016464056401410046055064F40114001A0487
:204C600000190F3264004B00000000002D50280078002F542E007D002D5000007800324B6E
:204C80004B0032002800000000000055F4019001013C8700500000000000320090015E015E
:204CA000F40100000A64C8009001960000050F00010F0114004B3200005A140B00004B0028
:204CC0009600001400280100C8001E22002514640000000000000000000000003232329630
:204CE00032000019070F5A0500000264646464646464016464056401410046055064F401CE
:204D000014001A0400190F3253001E0004000105010001070A000000000000000000000079
:204D2000000000000000000000000000000000000000000000000000000000000000000073
:204D400000000000000000000000000000000000000000000000000000000076000D0001CF
:204D60000001000000140504050000000000000000000504050000000000000000010504F8
:204D80000500000000400000000205040500000000010002000305040500000000000000AA
:204DA000000405040500000000000000000505040500000000000000001E050202000000A7
:204DC00000000000001F05020200000000640052002A001F000500000000000001000100A5
:204DE0000500000102030000000000000000000000000000000000008017000C00380004C9
:204E00000000642C0164002E00370005002D001E001400EE020F0F14144C04A406FB04089D
:204E200008280C0F00020000040000EE0296000A0096144B0A0B0019000000000028010045
:204E40001200200206000364646464003200F40196000A0001010000000000000A000001B1
:204E60000000FE01D4FE0900020100006E0A0146002902000000000000000000000000006B
:204E8000000000000000000000000000000000000000000000000000000000000000000012
:204EA0000000000000000000000000000000000000000000000E002A02010064005802F405
:204EC00001000016001B000300002600020301F40132000164000078000E0016000300C482
:204EE000090000B402000008001000010000050A0005020000000000000C002C0201001970
:204F00000019000A0007002D020000001A0023020300000000000000000000000000FF00F7
:204F20000000000000000700090200002800002DBB000000FFFFFFFFFFFFFFFFFFFFFFFF5B
:204F4000FFFFFFFFFFFFFFFFFFFFFFFFFFFFFFFFFFFFFFFFFFFFFFFFFFFFFFFFFFFFFFFF71
:204F6000FFFFFFFFFFFFFFFFFFFFFFFFFFFFFFFFFFFFFFFFFFFFFFFFFFFFFFFFFFFFFFFF51
:204F8000FFFFFFFFFFFFFFFFFFFFFFFFFFFFFFFFFFFFFFFFFFFFFFFFFFFFFFFFFFFFFFFF31
:204FA000FFFFFFFFFFFFFFFFFFFFFFFFFFFFFFFFFFFFFFFFFFFFFFFFFFFFFFFFFFFFFFFF11
:020000040800F2
:020000040800F2
:20800000074BD0F8E4105B68D0F8F0205B1A9A42B8BFC0F8F030012380F81C310020704757
:20802000001000E0B94B00EB8002F0B503EBC20553F832205268918ACC074FEA800C74D433
:20804000CCB2A70743D5BFF35F8F297F0129CCB200F0E5804100148BBFF35F8F0CEB00041C
:2080600003EBC404257F022D00F005810CEB000403EBC404257F032D08D1A47F34B10C1877
:208080001C4494F87850002D40F05F819488A4B244F4806494800C181C4494F97AE00CEBEB
:2080A000000403EBC404247F013474450ED101441944002481F8784091F87910002940F034
:2080C000D380604403EBC00300225A76F0BD660762D414F0400400F0E28000EB4001194493
:2080E000148A91F97AE06E6AE4B206F80E405FFA8EF6741C64B22F7F81F87A40E51CAF42EE
:208100004FEA4001A64600F046810CEB000503EBC5052D7FAC42C2D10C1806F1020E1C44D6
:208120004FFA8EFE84F87AE0B9E7118821F400610904090C1180118889B241F480611180B7
:2081400000EB40041C44AE7F002184F87A104100002E53D094F87840002C4CD00CEB000423
:2081600003EBC4040144247F19440125022C81F8785004D1118889B241F4006111800CEBA8
:20818000000103EBC101897E41F001011182604403EBC0031B7FF0BD00EB400E9E44AC7F7F
:2081A00001218EF8791000FA01F1002C00F083809EF87840002C40F084800CEB000403EBEC
:2081C000C404647F002C00F0C3800D181D44148895F87AE0A4B244F400740EF1010E1480E8
:2081E0004FFA8EF485F87A40B2F800E01EF4807FFAD1A64653E7EC7EFF2CAFD00CEB0004E2
:2082000003EBC404A57E05F0FE051582E27EFF2ABDD001441944FF2281F87A20B7E7A97F44
:2082200000293FF417AF00EB40051D44410095F87860002E3FF40FAF168826F480663604EE
:20824000360C1680BFF35F8F85F87940148B148895F97AE0A4B244F4007414809488A4B245
:2082600044F4806494801AE7918821F440710904090C918025E7A47F002C3FF4F7AE0C1864
:208280001C4494F87850002D3FF4F0AE94F97AE0148824F480642404240C14804EE01FFA7A
:2082A00081FE1EF0800F33D100EB40041C44410094F97AE0F3E69EF87840002C3FF47DAF35
:2082C00083E72C7F022C14884FD924F480642404240C1480178A6E6A9EF97A40FFB23755A8
:2082E0006F6A1588ADB245F400751580E4B2168A651C6DB2F6B27E5595880234ADB264B24D
:2083000045F480658EF87A4095806DE7D818002000EB40071F44410097F97A60B6F1FF3F61
:2083200040D02C6AA45D14822C7F06F1010E4FFA8EFE744587F87AE07FF4B1AE948824F4E2
:2083400080642404240C9480A9E694F97AE0F5E71488A4B244F4807414800C181C4401251F
:2083600084F8785094F97A403EE7A4B244F400741480168A6F6A9EF97A40F6B23E55E4B21C
:208380006F6A168A651C6DB20334F6B264B27E558EF87A4028E7958825F480652D042D0C28
:2083A0009580B2E6E97E1182A97F87F87A4019B9297F00297FF4EBAE918821F480610904EA
:2083C000090C9180E3E600BF1B4B01681B4A03F5727C03E063452CD053F82C2F9142F9D10B
:2083E00070B593F804E0427996450AD0634505D053F82C2F9142F4D06345F9D14FF0FF30DF
:2084000070BD9E468468DEF80C50A5424FF0000208D00132032A0EF10C0EE7D0DEF80C50CB
:20842000A542F6D1DEF81050C668B542F1D150B270BD4FF0FF307047DCAD05080000014046
:2084400030B5EAB18E464FEA014C034600F1C005002419689A6841EA0C0142EA0E029A602E
:20846000C3E900140C33AB42F3D1D0F8C030C0F8C44043EA0E03C0F8C030C0F8C84030BD45
:208480004FEA014E8C46E0E783691969B3F80CC00A6830B49C6822F0010224680A60A28946
:2084A00092B222EA0C02A281027D04681F2A06D96568203A08209040284245D0FEE7256818
:2084C000082090402842F9D1202000FA02F2A260264A1278002A35D01A7E012A39D0D3F880
:2084E000F4200132C3F8F420EFF31181502282F3128858685C6C026822EA04029C6C224300
:20850000C9B2026081F31188D3E90C401A6999681D6C096814605061D3E90E405460906018
:208520000024B3F8A800D5604C62C86210680124204310601C7683F8F1408A899B8913437C
:208540009BB28B8130BC7047202000FA02F2E260BEE7002283F8F120D3F8F8000A680130F6
:2085600022F00102C3F8F8000A60EBE70400001010B40C4C6368002B11DD002004F1080CBA
:208580000146DCF8A03003F1C00259600C339342FBD16368013083420CF5807CF1DC5DF8C1
:2085A000044B704704000010F0B5494C04EB401C9CF8242402B9F0BD464B4FF08C0E0EFB65
:2085C000003E93F8E46493F8E5249EF886708CF80A7496424FF0000C4FEA40158EF886C0EB
:2085E0000ED002EB420C03EBCC0C57009CF8E8C40CF1FF3EBEF1010F5CD9BCF1030F53D0F5
:208600006019A0F80814EFF31182902383F3128890F80A34B0F8081443EA41030021D2B255
:208620009BB280F80A1482F311881A09217882EA13225A40D9B1D0F82044D0F80C14D4F8E8
:20864000A040D2431B019BB202F00F0201208840134304F1C0015A0013F4004F93B202D1FC
:208660006268024362600C348C42F4D1F0BDD0F82014D0F80C04D1F8A0401B0100F110010E
:208680009BB202F00F0201208840134304F1C0015A0013F4004F93B202D1626802436260FC
:2086A0000C34A142F4D1F0BD02F1010C0CF0030CB445A5D03A4403EBC202131893F8F514BD
:2086C00000299DD06319012283F80A2498E700BF04000010D8180020704700BF024B03EBA9
:2086E000401090F825047047040000104368B0F8502010B41A83EFF31182502383F3128892
:208700004168446C0B6823EA0403C46C2343D2B20B6082F31188D0E9074182680369126815
:208720001C605961D0E909415C60C46A9960B0F86010DC600023D1625DF8044B037670479F
:2087400010B4037D01681F2B09D94C68203B202202FA03F31C4215D15DF8044B70470C68EA
:20876000202202FA03F31C42F6D00D4A4068002482F8484502685DF8044B22F001020260F2
:208780008B607047064A4068002482F8484502685DF8044B22F001020260CB60704700BFEE
:2087A000D8180020704700BF0B4890F83C1589B101EB4101002310B4490000F244501C4687
:2087C00050F82320063302B114608B42F8D15DF8044B7047704700BF040000100B4890F858
:2087E0003C1589B101EB4101002310B4490000F244501C4650F82320063302B114609942E2
:20880000F8D15DF8044B7047704700BF0400001001207047034B00EB400003EBC00090F823
:2088200055057047040000101F4890F83C35002B39D000222DE9F04300F244531B4E1C4DB9
:208840004FF0500E4FF02C0C144607E053F8181B0C6090F83C150132914222DD197C00293D
:20886000F4D05F68B90AA1F5801105EB010952294FF0FE0898BF99F8F483EFF311898EF36D
:208880001288796A0CFB08680131C8F87415B98A89B241F001015FFA89F8B98288F311888F
:2088A000D4E7BDE8F083704704000010D8180020DCAD050807EE900AB8EE670A704700BF58
:2088C000BCEEC00A10EE103A98B2704708B51D2010F00CF908B183794BB11E2010F006F9EE
:2088E00008B1837903B108BD5523C38008BD5523C380F2E70D4B0E49DB68DB43C3F302234B
:20890000C3F104030122DBB202FA03F301EB000C1B0103F0F0038CF80033430900F01F00EE
:2089200002FA00F041F82300704700BF00ED00E000E100E0122301480B8070478801002082
:20894000042301480B8070479C0100202048D0F8103AD0F8182A30B59B184FF01A040C80A3
:2089600001D11C4830BD1B4AD0F8141A4FF0000E10467546B3F1204F4FEA137C0CF130040F
:208980000EF1020E2ABF0CF1370C847080F802C0BEF1100FC5704FEA031300F10200E9D172
:2089A00000200446B1F1204F4FEA117303F1300C00F102002ABF373382F812C09374082886
:2089C000D4744FEA011102F10202EBD1014830BD0070FF1FA001002082B01F4B002201927B
:2089E0000193019B1D4A04330193019B1968936803F00C03042B07D0082B0AD0184B194A22
:208A0000C3F8B42702B07047154BC3F8B41702B070475368506813F4800F00F03F00536815
:208A200013D1C3F388130F49B1FBF0F101FB03F30A4A0B495268C2F3014201325200B3FB9D
:208A4000F2F3C1F8B43702B07047C3F38813B1FBF0F101FB03F3EBE7502800400038024050
:208A6000D81800200024F4000123437700207047D0E90B2108B583690B4483610AB108464F
:208A80009047002008BD00BF436A1B681B6A5B685B78024613F0010008BF5077704700BFC0
:208AA00070B5224A224C234B94B00546CDE90042214A0992A4F108020A922A7F0493201D04
:208AC0000023CDE905039A42CDE90E330B931093139314BF0520042011936B6A0C900220A8
:208AE0000122029018688DF80C200E4607928DF820208DF834208DF848204FF0EDFB2B7F47
:208B000093B1330E04F8073C063C320C330A22706370A670686A69460FF010FC6B6A186878
:208B20004FF0DAFB14B070BD073CEEE790200020C4010020898A0008698A000810B504463E
:208B400094B050220649684652F080F8606A69460FF0F4FB636A18684FF0BEFB14B010BD6B
:208B600024B20508C2628161704700BF2DE9F0410446406A00681E460F4690464FF0ACFB7E
:208B8000237F002B3FD02A4DA0690523EB67030E85F8453005F146039870020C000A5870D5
:208BA0001A703B68C5F888300020D8F80030C5F89030012E2363C5F8A0002BD0022E20D148
:208BC000D8F80420C5F89800796885F89400C5F89C1013441749C5F8A4200120236385F895
:208BE000A800C5F8AC10144B617F606A03F11402002914BF194611460FF0A0FBE36A8BB16C
:208C0000206BBDE8F0810A4DA0690423EB6705F14503C1E7074B85F89460C5E92630C5F870
:208C2000A400E0E7636A18684FF056FBE8E700BF88010020718A0008D4010020704700BF47
:208C400000B583B081610192049A0093C26201236A4601A9FFF78AFF03B05DF804FB00BF9F
:208C6000043070470D4B93F8C027D3F8BC170244D2B283F8C02793F8C02708441206C3F8E4
:208C8000BC0705D593F8C02782F0800283F8C027034B012283F8C420704700BFD818002019
:208CA000880100202DE9F047144FD7F8C457ED0A1ED00026B04607F2FC79D7F8C8371048DC
:208CC000D3F828A0C7F8F487AC19641010234A46E102D0470F280BDD0A4B03F1100C53F802
:208CE000041B013107D16345F9D12546B542E4DCE802BDE8F087661CF8E700BFD818002081
:208D0000A0200020D42000201C4BD3F80C18D3F810288A1A322A16D8D3F824288A4200D362
:208D20007047D3F8182822B31068928810B444693231224218BF42835DF8044B08BF028346
:208D4000C3F82418704793F81428D3F8181802F0010219B132B90A68898811830022C3F805
:208D6000242870470A68898851830022C3F8242870473231C3F82418704700BFD8180020D9
:208D8000094A92F81438D2F8182803F001031AB123B9136892881A83002070471368928864
:208DA0005A830020704700BFD81800204FF40070034B1060D3F830380B600020704700BF8B
:208DC000D81800200020704701207047012070470020704743F201220221028043F20112E0
:208DE000002343F2010C0172828040F2FF11FF22A0F802C043818381C381018282747047A0
:208E0000154BFF224FF0FF3CF0B5C2700271027242724273827303F10C0766461725162412
:208E20004FF0150E002202EB820281189F4200F802E04C708D70CE7081F804C00BD093F94E
:208E4000062093F807E01C7A5D7A93F90A6093F90BC00633E7E7F0BD74B205084FF0000C8E
:208E600001210222032380F805C08171C2710372704700BF2C22022302704370704700BF2B
:208E80004FF4007141F20142002340F2344C0180428040F68C210122A0F806C003814381E4
:208EA0008181C281704700BF40F22E4CA0F81EC04FF4F07CA0F800C04FF4FA6CA0F820C0AD
:208EC0004FF47A7CA0F822C040F2262CA0F81CC04FF4F56CA0F824C042F2201CA0F808C0F7
:208EE00041F2132CA0F80AC041F6380C02210022A0F80CC04FF00E0C072380F826C04171E7
:208F000040F2012C82714174428240F2034140F205628370A0F814C0C182028383767047A0
:208F20000023037043708370C37070470023037043708370C370704700220123027042707B
:208F40008270C270037143718371C371704700BFFF23037043708370C370704700230621B8
:208F60004FF47A72C0E9012301700373704700BF10B50023411CFF2200F8132001F81320DB
:208F800001330B2BF8D10B4B4FF0FF3103F10F0400228C4605E093F904C093F9051013F8FD
:208FA000032F00F812C000EB420E9C428EF80110F1D110BD88B20508022141700171C171B7
:208FC0008172132100B501731221C173262181741821012300224FF0FF0C41751A214FF0A5
:208FE000280E80F802C080F805C080F817C002724FF0190CC2724373837303744274C37459
:209000000275837543768276C1760377427738212022212380F800E080F818C0C17082711B
:2090200043725DF804FB00BF03230370704700BF704700BFD0ED007AD0ED016A30EE677A85
:20904000E6EE877AB0EE670AC0ED007A704700BFD0ED017AD0ED026A30EE677A90ED000AA8
:20906000E6EE877A37EEC07AC0ED017AA6EE870A80ED000A704700BF90ED017AD0ED036A60
:20908000D0ED027A30EE470AA6EE807A90ED000A80ED017A37EE676AE6EE867A37EEC07A02
:2090A000C0ED027AA6EE870A80ED000A704700BFDFED277AB4EEE70AF1EE10FA0CDDDFEDD7
:2090C000256A9FED257AF0EE407AF4EEC77AF1EE10FA30EE660AF6DCDFED207AB4EEE70AD9
:2090E000F1EE10FA0CD5DFED1B6A9FED1D7AF0EE407AF4EEC77AF1EE10FA30EE260AF6D476
:20910000DFED187AB4EEE70AF1EE10FA14DDDFED107A37EEC00A60EE006A9FED136A9FEDF2
:20912000137ADFED137AA6EE867A20EE266AE6EE877AA6EE270A7047DFED0E7AB4EEE70ADF
:20914000F1EE10FA44BFDFED057A37EEC00AE2E7DB0F4940DB0FC940E4CB1641DB0F49C0C1
:20916000E4CB16C1DB0FC93F92E741B99730083C15A82ABEDB0FC9BFD0ED056AD0ED017A7E
:2091800090ED007A90ED066AD0ED025A90ED035A80ED050A66EEA77AC0ED066AE7EE007A9B
:2091A00090ED077AE5EE867A90ED086AD0ED045A80ED087AE5EE477AE5EEC67AB0EE670A2F
:2091C000C0ED077A704700BFD0ED057A90ED006A90ED067AD0ED035AE6EE007A90ED016A7B
:2091E000F0EE406AA6EE267AB0EE670AD0ED047A90ED026A67EEC07AA5EEC07AE6EE267AB0
:2092000080ED057AC0ED067A704700BF2DE9F047089F3C460E4614F8011B002B054614BF84
:209220004FF030094FF0200941B3002A2CDD234600E0B2B113F8010B9046013A0028F8D162
:20924000A8F102086AB1C24649462846B0475346002B0AF1FF3AF7DC397828EAE872013239
:2092600049B1D71B2846B047E01914F8011B0029F8D1BDE8F0871046BDE8F087002A02F1DF
:20928000FF38E0DC0846F4E70022EAE703685A1C02601970704700BF024BD3F86008036892
:2092A0001B681847D8180020114A002330B50360838002F10C054FF448744FF0290E4FF03B
:2092C000280C03EB430300EB430100F813C081F801E0D3788B70AA428C8008D092F90630FB
:2092E00092F807C092F808E054890632E9E730BD9CB205082DE9F0430446406A344D006858
:2093000095B00E46914698464EF0E6FF314B0193314B049305F1D0030093217F0223029303
:2093200005F1C802012300278DF80C3005920697002936D08DF834308DF84830CDE90977E2
:20934000330ECDE90E77CDE9107785F8C9300523CDF82C908DF82070CDF830801397CA3502
:209360000793330C1D4F2B70330A6B70AE70D7F86808656A0FF004F9637FA88033BB05A927
:2093800028460EF0DBFF636A18684EF0A5FFD7F86C080FF0F5F8636A9880404615B0BDE854
:2093A000F0838DF834308DF848300423CDE90911CDE90E11CDE91011CDF82C908DF820107B
:2093C000CDF830801391C9350793CAE76946D7E7880100203C210020898A0008D81800206D
:2093E000094910B54B6C094C43F480434B644022002104F5076051F08CFC4FF0FF33C4F8C8
:20940000B038C4F8B33810BD00380240D818002070B5224B93F8E42493F8E5349A4237D1B9
:209420001F4D95F80436E3B195F808461D4B002040F20D3CB4B19A6899895160166819684E
:2094400046F001061660A1F848C08A8992B242F480728A8195F804260130824203F1180373
:20946000E8DC70BD1A68118821F080010904090C11809988D162118889B241F08001118030
:209480005462998A9689314389B291819C82E1E74DF02EFB0028C3D170BD00BFD81800200F
:2094A00004000010902100202DE9F0411E4B93F8E42493F8E5349A422FD11C4F7D68002D87
:2094C00012DD3846002410F8086BA046013416B1037E012B1CD002691368AC4243F00103FA
:2094E00000F580701360F1D111F09CF8D7F80C46002C0BDD0E4A02EBC404116893888889D6
:20950000083203439BB294428B81F6D1BDE8F08180F8F080FFF7EAF8DDE74DF0E9FA0028F3
:20952000CBD1BDE8F08100BFD818002004000010140600102DE9F04F037D02681F2B83B0B0
:20954000044609D95068A3F120052021A940014207D103B0BDE8F08F10682021994001427D
:20956000F7D05149514D4968C5F8301695F80816A7694F4E19BB8C2101FB0761D1F88C00A6
:20958000D1F804E1D0F800C0DEF80000B1F8908020F00100CEF80000BCF80C1089B221EA19
:2095A0000801ACF80C10297801BB1F2B6FD9A3F1200120238B40D36003B0BDE8F08F8C2179
:2095C00001FB0761D1F88C10D1F810C00868DCF8001021F00101CCF80010818921F48071DE
:2095E0000904090C818129780029DED04FF08C0808FB07F806EB08032E49D3F804A1D3F84C
:209600008C200193504608F11809D2F800B0894448F0C4FE019BD5F838262649012083F847
:20962000D800002A3AD0BBF800309BB243F08003ABF8003008F174084FF0FF334144CBF837
:209640002C30584649F030F88C2303FB076600234946C6F8A830504648F036FFD6F8043147
:2096600016225A601A6842F001021A60D6F88C20B6F89030126891890B439BB293810A4949
:20968000237D49682268C5F834161F2B8FD8202101FA03F3936003B0BDE8F08F10F0C2FF7A
:2096A0000449C5F83806BEE7001000E004000010D81800205C190020F8B5164D1648174F40
:2096C00000214FF41A7251F024FB05F688064FF0804105F66C043A46002301E054F8332023
:2096E00091420BD001330E2BF8D100201C354CF003FAB5420CD055F81C1CECE7084A02EB72
:20970000C3031C3593F8600D4CF0F6F9B542F2D1F8BD00BFCCB20508241E002000000140B3
:20972000DCAD05082DE9F04110F07CFF1F4F204E05464FF000087C68002C2ADD00231A46C9
:2097400007EB0321013391F8F9109C4242EA0102F6D142EA0804E4B290467368C3F3080319
:20976000A3B9EFF311838BB913F032F8431BB3F5FA6F02DCB8F1000FDDD124B10D4B93F83B
:209780007829542A09D02046BDE8F08110F01CFFECE744464FF00008DFE7B3F88029013249
:2097A000A3F880292046BDE8F08100BF0400001000ED00E0D8180020BC4B1B780BB90120BA
:2097C00070472DE9F04FBA4DBA49D5F80C28BA4BA1FB02125209A3FB023A4FEADA0A0AEB76
:2097E0008A0AA2EB4A0A85B0B04A5FFA8AF3039302F61C1302F23C670193002307EB8A0A5E
:2098000002F581699846A94BD3F8243A434540F31781D9F81830D9F80460D3E93A3402930C
:2098200010F000FF029B95F878C902904FEA860E95F88C090EF1085E04F180610EEB431EA8
:209840003939BCF1540F0EEB81110EEB801301D1A5F88209994240F26A811A68002A00F0E1
:209860005E811A6C002A00F07081D3F88020002A00F06D81D3F8C02003F58073002AE9D18B
:20988000A3EB0E0E99424FEAAE1E40F25081A4EB0E0145294FF0000428BF452103EB81111F
:2098A0009B46204626460DE01A6C002A40F0D080D3F88020002A40F0F680D3F8C02003F5FA
:2098C00080732AB9994206D91A68002AECD04033994200F2C180112E344640F22C81D6F1B0
:2098E000150200F128817549029ED1F8D4309E45D5F8903938BFC1F8D4E0F11A002919DB87
:2099000003F5F42303F590739E4288BF029B6B4988BF0533C5F89039684BD3F8D430052B0E
:2099200086BF053BDBB2002385F88C394FF0FF33C1F8D43042B100FA02F2C4F114040120B3
:2099400000FA04F444EA02005D4BC0F3C43203EB8202D2F8CC1D00F01F0203EB8202D2F822
:20996000CC2D42EA0131C0F3441203EB8202C0F3842003EB8000D2F8CC3D41EA0311D0F876
:20998000CC3D41EA032181EA112383EA131303F00F030F2B40F0B180B1F5803F80F0AD809B
:2099A000BCF1540F4FEA111104D1B5F87C390133A5F87C393D4AD2F82439B1F5606F03F168
:2099C0000103C2F8243900F0D480019B998197F858300398834210D0DAF808203B689B1AC9
:2099E0003B60DAF830207B689B1A7B600023CAF80830CAF8303087F858003B6801333B60AF
:209A0000DAF808300133CAF808304FF6FF73994207D17B6801337B60DAF830300133CAF88A
:209A20003030019B08F101081433B8F1080F07F15C070AF15C0A019309F120097FF4E3AEAA
:209A40001A4A0123012082F8203A05B0BDE8F08F803399427FF63FAF5A469A1A9211541C58
:209A6000184A82FB04B2A2EBE472012AB8BF0122904001241644013A04FA02F210431C4678
:209A800022680AB3226C002A63D0D4F88020002A61D0D4F8C02004F58074B2B1A142EFD827
:209AA0009B4623460EE7C03312E700BF04000010D81800201F85EB51CDCCCCCC88010020DE
:209AC000DCAD0508565555554034A142E8D9E31A9B115A1C2F4B83FB02B3A3EBE273012BA8
:209AE000B8BF012398401E440122013B02FA03F3184323469B462346E4E6BCF1540F2CD05C
:209B0000254AD2F824390133C2F82439224AD2F820390133C2F820394FF6FF7157E7403328
:209B2000A3EB0E0E99424FEAAE1E3FF6B0AE10B1013885F88C09BCF1540F7FF472AFB5F8AB
:209B40007E390133A5F87E396BE7803398E6C03396E68034B9E7C034B7E7B5F87C390E4A34
:209B60000133A5F87C39D2F824390133C2F82439CCE795F8E53403EB430305EBC303434423
:209B800093F8F5340D2B7FF420AF019A802393771DE700BF565555550400001010B5044614
:209BA00050F0DCFA81B22046BDE81040FEF7FCBC38B50B4D00EB400005F2445303EBC003A5
:209BC00093ED027AD3ED037AE7EE007AC4002C44B0EE670A50F0C2FAD4F84435186038BD0C
:209BE000040000100C4AF8B5136855692B4003EA000555617DB1094F0126B5FA85F4C4F178
:209C00001F0407EB840306FA04F4D3F8700803689847A543F1D1F8BD003C0140D818002037
:209C2000038A2DE9F047B0F80C901FFA89F919EA03092BD005460E464FF000474FF00008F5
:209C4000B9FA89F327FA03F2D24391B21B3B298209EA0209042B16D8DFE803F0352C231AF3
:209C60000300B36A002B37D003F1FF3A1FFA8AFAC6F82880746A34B1236820465146984738
:209C80006468002CF8D1B9F1000FD9D1BDE8F0877068696B036889B29847B9F1000FCFD1FA
:209CA000F4E7B068A96B036889B29847B9F1000FC6D1EBE7F068E96B036889B29847B9F11B
:209CC000000FBDD1E2E73069296C036889B29847B9F1000FB4D1D9E7E96A1FFA81FAC9E7D6
:209CE0000A4608B5054920B9054848F003FE034808BD044848F0FEFD004808BD6C22002060
:209D0000F02706081828060810B5044C04480A46214648F0EFFD204610BD00BF6C220020F4
:209D20004028060810B5044C04480A46214648F0E1FD204610BD00BF6C2200205428060855
:209D400010B5044C04480A46214648F0D3FD204610BD00BF6C2200206028060838B590F838
:209D60002830012B044604D0407F40B10023637738BD406A03681A7B92B9637F0BB90120E3
:209D800038BD0A4D0A49022305F694220EF006FB95F8953A03F0010383F001006377E7E7E0
:209DA0001B6A002BE9D0002038BD00BFD8180020600200202DE9F0410446154E90F8280030
:209DC000637F144F06F69428012805D00BB1002363770120BDE8F081606A05682A7B82B981
:209DE000002BF6D00223424639460EF0D7FA96F8953A03F001036377002BEAD094F82800B0
:209E0000E2E72A6A002AE8D1002BE2D0EAE700BFD818002060020020F0B511F0010583B024
:209E20000AD190F82860012E044607D0C368B3F1807F01D90123237703B0F0BD0A4B476A1B
:209E4000D3F868080EF09CFBE368B880B3F1807FF2D9B7218DF80410267733462A463846CC
:209E600001A90EF09BFAE7E7D81800202DE9F047089F884615460021202204461E4650F059
:209E800048FF4FB13B68E3811B0C23827B687A89E3821B0C6282238340464EF099FCEB0662
:209EA00019D4431EB8B108EB000701E0013B12D317F801CDBCF12E0FF8D1C01A421E032AF8
:209EC000A8BF0322082B03F1010AA8BF08239146C2441A4606E008280246C246A8BF0822FE
:209EE0004FF000094FF0203341462360636004F10807204650F0AAFE174B23815146BB70A1
:209F00004A46384650F0A2FE611EE31D11F801CFACF1610EBEF1190F9CBFACF1200C81F87B
:209F200000C08B42F2D1384604F10B0110F8013BA3F16102192A9CBF203B00F8013C88421F
:209F4000F4D118232373330CA382E572099B6683E361BDE8F08700BF2020200008B549F0AE
:209F6000A3F80C4B93F89D1D29220129A3F8F62AA3F8FE2A01D0012008BD0748C3F8A00D49
:209F800000F120014C304BF0D9FA044B002083F8230008BDD81800206402002000ED00E0F0
:209FA0002DE9F04FDFF88894D9F80C08C9F8100887B0002B00F0DA8001F5FE781344DFF855
:209FC00074B40393164601F12007C24621E0002E64D0D9F83C38B34200F0CC80D9F838382C
:209FE000B34200F0FF80D9F84038D9F84418B3424BD8B14200F29981711A20464BF04CFAFE
:020000040800F2
:20A00000039B01369E4207F500770AF5007A00F0AD80D9F84858B542A7F12004D7D8751B1F
:20A02000D9F8588805F00702EB080492D8F830200233934203D3D8F8382093420BD9414680
:20A04000184605934BF0F8F9059B8046002800F08C81C9F8580898F80420002A40F034816F
:20A06000D8F82850002D00F07981D8F830209B1A049A02EBC303D8F80C20204602EB4322A7
:20A080004FF400714346A847BAE7B142B4D920464FF40072002150F03CFEB1E74FF4007270
:20A0A0003146204650F035FE802387F89E310C2387F8A231D9F83838D44AD9F83018C4F8AA
:20A0C000C6319342C4F8CA1100F33481D04AD14C82FB03021A44D817C0EB621284FB02547B
:20A0E000CD4D85FB03C5C0EB2530C2EB821587F8A1015B1B801020F03F0001330343144472
:20A1000087F8A031D317C3EBE4142244BF4B87F89F214A1E9A4200F31981BD4BBD4883FB54
:20A1200002311144D317C3EB611180FB0140BA4C84FB0254C3EB2433C1EB811487F8A5315B
:20A14000121B9B1023F03F0301321343084487F8A431CB17C3EBE010014487F8A311552339
:20A1600087F8DE31AA2387F8DF3149E7002007B0BDE8F08F4FF0FF3384F8EC3184F8ED3126
:20A1800084F8EE3184F8EF31D9F85038C4F8E8315223237063706123A37084F8E7314123F0
:20A1A0000025E37084F8E631722384F8E43184F8E5314FF4F0722946A7F11C0050F0A9FD2E
:20A1C0005523C7F8D051C7F8D451C7F8D85184F8FE316FF0550384F8FC5184F8FD5184F8EA
:20A1E000FF310DE700214FF40072204650F091FD8A4A03CA47F81D0CEB2007F8200C58207A
:20A2000007F81F0C902047F8191C07F81E0C002302220821F820E372227307F8131CA27312
:20A22000E37307F8102C07F80B0CD9F8380884F82C20D9F830286376121A2262D9F84008D3
:20A24000D9F84428E376121A3F2020764FF0FF30A0763E20207701206377A377E37784F8E3
:20A260002D3084F82E3084F82F30626284F8300084F8313087F82610802187F82010292130
:20A2800087F82210942187F823100E2187F824100D21634A87F82510552187F8DE11AA2186
:20A2A00087F8DF1103CA5F4BC7F82700C7F82B1003CB1388A7F82F309378C7F83200C7F8B6
:20A2C000361087F831309BE64FF400720021204650F01FFD049B002B4ED1D8F84030002BEB
:20A2E00000F0AA80049AD8F830304F49CDE9002220461122FFF7BAFDD8F840301A6C002AD0
:20A3000000F0AD80049A1B6BCDE90022474911223846FFF7ABFDD8F8448007F120044FF452
:20A32000E075B8F1000F3FD16AE6F11A20464BF0B3F865E6FF2387F89F3187F8A13187F8CD
:20A34000A031324B4A1E9A427FF7E7AEFF2387F8A33187F8A53187F8A43100E72946204686
:20A360004FF4007250F0D5FC4AE6A7F1240343F804BF9A45FBD143E6D8F84030049AD8F8A8
:20A380004480002B0CBF01230223C3EB02154346002B3FF435AE013D9B6CF9D198464FF4FB
:20A3A0000075002B3FF42CAE25442034234620354446049698460EE05CF81C1B236BCDF8A7
:20A3C00000C000260196FFF751FDA46C08F12008CCB1A84517D02379A44604F11C0E112262
:20A3E000A8F12000002BE7D162792669236B216842F02102CDE900E6FFF738FDA46C08F11B
:20A400002008002CE5D1049EFAE500BFFF03FB0083200882818080809755454178280608A7
:20A4200084280608902806087028060874280608D8180020DEADBEEF049BD9F83418CDE992
:20A44000003320460822FFF711FDD8F84480B8F1000F3FF4D5AD3C464FF4F075A4E7049BE0
:20A46000CDE9003352E700BF144B154910B5044618681B79206284F82430152204F1250078
:20A4800050F098FC0F4B93F8A42D4FF0010E84F83AE012B984F83B2010BD03F6A85CBCE83E
:20A4A0000F0020606160A260E360BCE80F0084F83BE020616161A261E36110BD9C28060894
:20A4C000A4280608D818002010B500213822044650F01FFC0D490E4A0E482061C4E9051264
:20A4E0000D480E4AE061012341F61E614FF0090CE18484F808C0A37384F82130A262214649
:20A500000748BDE8104032F0CBB900BF1A046C07001975036400DC0543080E001E7D010135
:20A52000B0280608084B10B5D3F8C83D18440C46807D0EF0DBFA18B1828803680CB11A8337
:20A5400010BD5A83FCE700BFD818002010B42A492A4A91F804367BB3D2F8B848A04239D04E
:20A56000012B29D0D2F8D048844239D0022B23D0D2F8E848A04235D0032B1DD0D2F80049D6
:20A58000A04231D0042B17D0D2F81849A0422DD0052B11D0D2F83049A04229D0062B0BD07D
:20A5A000D2F84849A04225D0072B05D0D2F86049844208BF07230ED003F1010C81F804C616
:20A5C00003EB430102EBC1025DF8044BC2F8B808184670470023DBB218465DF8044B7047FD
:20A5E0000123F8E70223F6E70323F4E70423F2E70523F0E70623EEE704000010D818002034
:20A6000038B5424C8C2303FB004393F8933003B938BD94F8E4C494F8E5349C450ED003EB4A
:20A62000430204EBC20292F8E8E40EF1FF35012D4FEA430246D9BEF1030F3ED08C2202FB54
:20A640000042A2F88410EFF31181902383F31288B2F8845092F8863043EA45030025C9B280
:20A660009BB282F8865081F3118829491A090D7882EA13225A4005B1D2431B019BB202F0B5
:20A680000F021A4391F808365BBB8C2303FB0044D1F8283AD4F80C0101219847D4F8081194
:20A6A000B4F890508A8AD4F804312A438A8258601A6842F001021A6038BD5D1C05F003052C
:20A6C0006545BBD0134404EBC303034493F8F5140029B3D08C2303FB0043012283F886207E
:20A6E000ACE78C2303FB0044D1F8285AD4F88C30D4F808115B79086903F0FC031844042166
:20A70000A847D4F808318000988138BDD81800200400001043680B4A23F0407323F48073C3
:20A7200043F48073436083681A4042F002028260C36A0139CAB223F4700141EA0251C162E3
:20A74000704700BFFDF7FFC0704700BF0020FDF769BC00BF0120FDF765BC00BF0220FDF757
:20A7600061BC00BF10B1036882881A83704700BF10B1036882885A83704700BF10B40469FA
:20A780008269E468416814604024D460446900230C31C2E90433C2E90633C2E90833C2E969
:20A7A0000A33C2E90C3393609363516084B1C269E0689363C2E90233C2E90433C2E9063394
:20A7C000C2E90833C2E90A33C2E90C33C2E900015DF8044B704700BF436800221A60037D34
:20A7E0001F2B08D9203B2022016802FA03F343F01803CB6070472022016802FA03F343F036
:20A8000018038B60704700BF0268136A11B1D96901B3143330B49C681D689169DDB14FF49E
:20A82000806088618D60104640690C6180B15968D369D9B10A464FF480619A609961224371
:20A8400012F0010F14BF00224FF400521A621C6130BC704770478D61064D4FF0FF0C85F801
:20A8600044C105F5A27500688D60DDE7024A9A609961E4E788010020A42600200168F8B5F5
:20A88000D1E9042304465568002B49D09861107D5E681F2831D81768202202FA00F040F013
:20A8A0001800B8601A7D1F2A32D91868203A202303FA02F242F01802C26000232B603360C0
:20A8C0003368896943F010033360284647F0FCFD23683046D96947F0F7FD2B68226843F0B6
:20A8E00001032B603368526843F00103336093889BB243F003039380F8BD17682038202228
:20A9000002FA00F040F01800F8601A7D1F2ACCD81868202303FA02F242F018028260CCE792
:20A92000137D90611F2B1CD81068202202FA03F343F01803836000232B602B68896943F015
:20A9400010032B60284647F0BFFD2B68226843F0010352682B6093889BB243F002039380AC
:20A96000F8BD1068203B202202FA03F343F01803C360E0E72DE9F0417F4D804E07463C6811
:20A9800097F888806368B888012284F824201A8822F040021204120C1A802289824223D00C
:20A9A000198821F038010904AB424FEA114100F0BF80734A934200F0BB800246B2F5807F4D
:20A9C000A8BF4FF48072022AB8BF0222002A92FAA2F2B2FA82F208BF4FF0FF32013A41EA0D
:20A9E000C20292B21A802081397BA27A8A420CD01A8822F003021204120C1A801A8892B22F
:20AA0000002900F092801A80A1721A8892B242F040021A80226A9168002900F0A3804FF06A
:20AA2000000C1432E64652F8100C8E4400EA060120B1B1F1805F23D0616909B352F8140C3A
:20AA4000143200EA060110B1B1F1805F18D052F80C1C0CF1010C0029E5D1227B82B1B8F1C1
:20AA6000000F0DD0BCF1010F6FD8BEF1070F6CD80CEB8C018900226A11440A7B002A64D00C
:20AA8000226A92684FF00008002A53D0B8F1000F02D098F80C2022B1BA6812B1116892880B
:20AAA0004A83226AD2F800E0226A5168226A9268501E9AB1BEF1000F23D01EF801CB1A89D9
:20AAC0009207FCD5A3F80CC01A89D207FCD59A8992B209B101F8012B0138EBD2236A1B7BF9
:20AAE000E3B9236A1B697BB1236AD7F894001B69984701280DD0022806D100232362BDE8D6
:20AB0000F0814FF0FF0CDAE7D4F82080236A14332362236A9B686BB16368B7E7BB68002B91
:20AB2000DFD01A689B881383DBE742F003026AE7420843E7236A1B68DBB1236AD3E9007216
:20AB400022620022C3E9002219E700213846FFF75BFEBB6813B11A689B8853833846BDE80E
:20AB6000F0418BE6227B002A8AD0B8F1000F82D186E72362C3E700BF003800400000FFFF36
:20AB8000003C004038B5D0F8E0102B4B04465A68D0F8D80071B1131A99420BDC94F8D030D5
:20ABA000C4F8D820012B10D0D4F8D4300133C4F8D43038BDD4F8E430C4F8D8200344C4F885
:20ABC000DC3094F8D030012BEED16168201D04F1E805EFF3118C102383F3128863681B6AF8
:20ABE0000BB3D4F8F0302A461BB1D3691432002BFBD10B6A6BB1996839B9934209D0196843
:20AC000029B15B6899680029F7D01433F3E7C3E900055FFA8CFC8CF31188D4F8D4300133D7
:20AC2000C4F8D43038BD0D625FFA8CFC8CF31188FFF7A0FEB8E700BF001000E02DE9F041CE
:20AC4000826992F8DC30012B8AB005464CD0023B012B54D892F84C31D2F89C202E4C63F0B7
:20AC60007F0313708669D6F8A030D6F8108003F1010E0FCCEC46ACE80F00D6F89C30CDE9E1
:20AC8000003E0FCCACE80F0094E8030006F110078CE80300EFF31180102383F312883369A2
:20ACA0001B6A002B2FD0029B6A461BB1D3691432002BFBD1D8F8203073B1996839B9934247
:20ACC0000AD0196829B15B6899680029F7D01433F3E71F60C3F804D0C0B280F31188AA69CB
:20ACE00011690B6A002BFCD1D2F8A0305A8852BAEA819A8852BA2A82DB885BBA6B8201201A
:20AD00000AB0BDE8F081C8F820D0C0B280F311883846FFF72FFEE2E728BC05082DE9F04193
:20AD200090F8DC30D0F8A050012B8AB0044672D016D8D0F89C304FF0FF321A605A609A60B5
:20AD4000DA60D0F8E0300522B3F57A7FC0F8F0207CD8032380F8DC3001200AB0BDE8F08162
:20AD6000023B012BF8D890F84D31D0F89C20524E63F07F031370D0F8A030D0F8108003F134
:20AD8000010E00F110070FCEEC46ACE80F00D4F89C30CDE9003E0FCEACE80F0096E803005D
:20ADA0008CE80300EFF31180102383F3128823691B6A002B73D0029B6A461BB1D36914324C
:20ADC000002BFBD1D8F8203073B1996839B993420AD0196829B15B6899680029F7D0143340
:20ADE000F3E71F60C3F804D0C0B280F311882269136A002BFCD16B885BBAA4F8D030AB8816
:20AE00005BBAA4F8D230EB8801205BBAA4F8D4300AB0BDE8F08190F84C2190F84D319B1AB6
:20AE20005B100133DBB205EB430235F813305BBAA0F8D03053885BBAA0F8D23093885BBADA
:20AE4000A0F8D43001200AB0BDE8F08103691A7B72B35B6963B390F898304BB390F84C3112
:20AE6000D0F89C20C4F8A40063F07F03137090F84C1190F84D31D0F8A0201048C4F804010A
:20AE80005B1A07330121C4F8FC30D4F89C3084F800110A44C4E93D3284F8DC105CE7C8F8FF
:20AEA00020D0C0B280F311883846FFF763FD9EE7022384F8DC304FE728BC0508018000086E
:20AEC000D3B2012B23D870B502EB4202114C4FEA820E4FF0000C22460EF10805634604E0FE
:20AEE0000133152B11D012F81CCF6045F8D192F801C08C45F4D15659002EF1D0C3EBC303A7
:20AF00000EEB83030433E01870BD002070BD0020704700BF50BC050810B40C4C002304F522
:20AF20005D6C01E0152B0CD003EB430201331CF802108142F6D122445DF8044B92F9D20DC0
:20AF400070474FF0FF305DF8044B7047D8180020D3B2022B21D830B502EB4202104D114CE6
:20AF60004FEA820C0CF10C0E2A46002304E00133172B10D052F82C4FA042F8D114798C425B
:20AF8000F5D152F80E40002CF1D02C2202FB03C30833E81830BD002030BD0020704700BF8A
:20AFA000DCAD050800000140002838D030B51C4D90F804C0002305F55D6401E0152B2CD0F5
:20AFC00003EB43020133A15C6145F7D12A44046892F9D23D90F805E0DAB2022A1DD803EB23
:20AFE0004303104810494FEA830C02460CF10C05002304E00133172B0FD052F82C1F8C427D
:20B00000F8D111797145F5D151590029F2D02C2202FB03C30833184430BD002030BD704773
:20B02000D8180020DCAD0508000001400348D0F8583113B100F5A470184770478801002001
:20B040000348D0F87C3113B100F5B67018477047880100200348D0F8A03113B100F5C870BD
:20B0600018477047880100200348D0F8C43113B100F5DA7018477047880100200348D0F834
:20B08000E83113B100F5EC7018477047880100200348D0F80C3213B100F5FE701847704735
:20B0A000880100200348D0F8303213B100F5087018477047880100200348D0F8543213B125
:20B0C00000F5117018477047880100200348D0F8783213B100F51A7018477047880100207C
:20B0E0000348D0F89C3213B100F5237018477047880100200348D0F8C03213B100F52C700A
:20B1000018477047880100200348D0F8E43213B100F5357018477047880100200348D0F817
:20B12000083313B100F53E7018477047880100200348D0F82C3313B100F5477018477047B6
:20B14000880100200348D0F8503313B100F5507018477047880100200348D0F8743313B1FA
:20B1600000F559701847704788010020094B0A4A013800EBC00003EB8000116BD0F848319B
:20B18000064883420CBF4FF400134FF480030B431363704788010020003802400060024075
:20B1A00070B501383C4C3D4D00EBC00C04EB8C0C9646DCF848613A4AAE420CBF4FF40015F1
:20B1C0004FF48005166B35431563CCF85811CCF860313449DCF84C318B424FEAC0023ED010
:20B1E00001F580618B423AD0A1F57A718B4247D001F580618B4243D0A1F57A718B4241D026
:20B2000001F580618B423DD0A1F57A718B4235D001F580618B4231D0A1F57A718B4233D034
:20B2200001F580618B422FD0A1F57A718B422DD001F580618B4229D0A1F57A718B4227D03E
:20B2400001F580618B4223D0A1F57A718B4221D0154D01F580618B4218BF002500E0134DD6
:20B26000104404EB8003CEF38711C3F8685193F85D01BDE8704000224AF05EBB0C4DEFE759
:20B280000C4DEDE70C4DEBE70C4DE9E70C4DE7E70C4DE5E7044DE3E788010020006002407B
:20B2A00000380240106002400080002820800010008000180088001000802010208000206A
:20B2C0000088002000802020800AA0F58010522808D8054B184490F8F4330D2B02D8034A43
:20B2E000D056704700207047DCAD0508442906080120FEF777BC00BF0220FEF773BC00BF7C
:20B300000420FEF76FBC00BF0820FEF76BBC00BF1020FEF767BC00BF4FF47870FEF762BCE2
:20B320004FF47C40FEF75EBC30B50C4683B0054618B3036803F13F4303F57E039B0A104A26
:20B34000134413F8380C4AF0D7FBA988009104F00303C4F381028DF8043028688DF8052052
:20B36000C4F300136946C4F341148DF806308DF8074046F07BFF03B030BD4FF0FF33DEE73B
:20B38000D4BE050800B1CFE7704700BF2DE9F843CB781BB900273846BDE8F88300F11008FB
:20B3A0000D460646897840460DF014F907460028F0D0E8780DF09AFBB0612B780133DBB2C1
:20B3C00010B1C371222383710921FFF7DBFFB069FFF7C8F9104AD2F80C38632BFBD90F4854
:20B3E000DFF840900E4C0DF0CBF8B08202E059F8044B54B14046A04703460028F7D0306995
:20B4000086F8D8304CF06CFFC5E7E8780DF06EFB0DF0CCFB2746BEE7D818002040420F0016
:20B420004D040508A8BE05080B4B10B5D3F8C83D03440446987D0DF059FB60B12E22827105
:20B44000621CC2710121FFF79DFF20460021BDE81040FFF767B810BDD818002070B50E4C9A
:20B46000D4F8246A002E15DD04F58164002503E0B54204F120040DD0237F0135002BF7D0B5
:20B48000E0680028F4D0217DFFF74EFFB54204F12004F1D1012070BD04000010F8B5037D36
:20B4A00085691F2B04464DD90168A3F120024E6820209040064234D010239340C860CB605A
:20B4C0004B68D340DE0700F18380EFF31183502282F312882A6C1168C9075AD4516889B2D5
:20B4E00071B9D5E90960864250D0AF690744D76073D9301A80B25060AE62002185F86410DF
:20B50000116841F00101DBB2116083F3118895F86430002B44D1237D1F2B27D92168A3F10A
:20B5200020024C6808209040044200D0C8604C68042000FA02F2224203D0203B00FA03F3B7
:20B54000CB60F8BD0268202016689840064219460ED010219940906091601168D940C8073A
:20B56000B3D5012101FA03F39360AEE722681946106808238B40184200D093601068042395
:20B5800003FA01F10142DCD09160F8BD012285F86420DBB283F3118895F86430002BBAD091
:20B5A00095F87C30002BB6D195F871000DF09EFA2A6E938923F008031B0401211B0C9381BF
:20B5C00085F87C100028A6D02021FFF7ADFEA2E7012303FA02F2CA6077E72E69301A80B2A9
:20B5E0005060A96289E700BF70B50C4682B015460646002839D0036803F13F4303F57E0386
:20B600009B0A1B4A134413F8380C4AF075FAB2880092B2FA82F304F003028DF80420C4F38B
:20B62000810230688DF80520C3F11F03C4F30012C4F341148DF80740C3F3CC0400EB8404D5
:20B6400003F007038DF806209B00226A0F269D4006FA03F322EA03032362226A15436946E9
:20B66000256246F003FE02B070BD4FF0FF33C8E7D4BE050800B1B7E7704700BF2DE9F04360
:20B68000774D05EB001683B0D6F8103E002B00F0938004464FEA001896F8180E4AF02CFAB4
:20B6A00096F8183E590903F01F0203294FF0010303FA02F300F09880042900F0858002297A
:20B6C0007DD005EB0803013493F8140E0DF00EFAE4B2814610B112238371C47105EB0803C4
:20B6E00093F8150E0DF002FA074610B11323C471837105EB080393F8160E0DF0F7F9064653
:20B7000010B11423C47183714544484695F8172E01924A21FFF7AEFF019A38462A21FFF724
:20B72000A9FF019A0A213046FFF7A4FFD5F8102E4C4B9A425DD04C4B9A424AD04B4B9A42E2
:20B7400062D04B4B9A426AD04A4B9A4272D04A4B9A427AD049499088B1F88A43B1F8883319
:20B76000B1F892532343B1F88C432343B1F88E4320F003002343B1F890430004000C234312
:20B78000B1F8944390802B4310882343B1F89643B1F8981300F44150234303439BB21380C6
:20B7A000938B23F400631B041B0C9383118213889BB243F04003138003B0BDE8F083304ACC
:20B7C000516A0B4353627CE72D4A11690B43136177E703F50033196A41F480411962196A95
:20B7E00021F480411962B5E7254A116A0B43136267E703F58433596A41F480515962596A6B
:20B8000021F480515962A5E703F5FE33196A41F400411962196A21F4004119629AE703F591
:20B820008233596A41F400515962596A21F4005159628FE703F56843596A41F4801159620E
:20B84000596A21F48011596284E703F56443596A41F400115962596A21F40011596279E7F2
:20B86000D81800200030014000380040003C0040003401400050014000540140880100200F
:20B8800000380240431C00F0A8802DE9F04F00EB8003C44FDA0087B057F802908100054623
:20B8A000019107EBC303B9F1000F04D09C68002C4BD0A17911B107B0BDE8F08FD3F80CA038
:20B8C000BAF1000F00F095819AF80630002BF2D11832B818D9F80480BB50691CC0E9013316
:20B8E000C3601523A371C9B21623E1718AF807108AF8063099F828004AF0FEF8B8F80430B5
:20B900002268A18823F440731B041B0CA8F80430DAF800301183BAF804201A8311212046EF
:20B92000FFF702FD11215046FFF7FEFC09264FF0330B24B12268A1881069014231D1BBF1BC
:20B94000010B45D04BF0BEFDF3E7D3F80CA0BAF1000F00F0A4819AF80630002BABD11832F7
:20B96000BB18D9F80480BC50C3E90144DC6016238AF806306B1C8AF8073099F828004AF042
:20B98000BBF8B8F80430BAF8042023F440731B041B0CA8F80430DAF800301A83C2E7A188E5
:20B9A000226851834BF032FD2368A2881A834BF02DFD013EBBD1332624B12368A2881969D8
:20B9C0000A420DD1013E00F0FB804BF07BFDF3E7002CE4D14BF01AFDE9E77047A288236897
:20B9E0005A834BF013FDBAF1000F00F02481DAF80030BAF804205A834BF008FD002C00F0BF
:20BA0000EE802368A2881A834BF000FDDAF80030BAF804201A834BF0F9FC2368A2881B6950
:20BA20001A4240F0A080019B2B4407EBC3039A7C002A40F095801A7C12212046FFF7D4FD1C
:20BA4000019B2B4407EBC3039B7C002B00F08F803221BAF1000F07D0019B2B4407EBC3033B
:20BA600050465A7CFFF7C0FD4F4B984500F0EF804E4B984500F0F6804D4B984500F0FD8013
:20BA8000019B2B4407EBC3074FF47A73BC8A03FB04F4B8F8043023F440731B041B0CA8F8DF
:20BAA0000430B8F800309BB243F00103A8F80030B8F8045002A846F023FC25F03F05049925
:20BAC0003C4B2D04A3FB01232D0C45EA9345A8F80450B8F8002022F001021204120CA8F8FF
:20BAE0000020354A980C9442034642DC6200B1FBF2F292B20133042A38BF0422A8F8203021
:20BB0000A8F81C20B8F800309BB243F00103A8F80030B8F8003023F4816323F002031B0403
:20BB20001B0C4FF4804143F48063A8F80030A8F80810B8F8003023F080031B041B0C00225A
:20BB4000A8F8003099F82A00114649F0F5FE002299F82900114607B0BDE8F04F49F0ECBE26
:20BB60001A7C322169E7DAF800301B695BE712216FE704EB4404B1FBF4F18AB2C1F30B0177
:20BB800009B942F001020D494FF4967300FB03F3A1FB03139B09013342F40042A8F8203029
:20BBA000AEE700BFD81800200054004000580040005C004083DE1B43A0860100D34D6210E1
:20BBC000002C7FF40BAF4BF021FCBAF1000F5FD0DAF80030BAF804205A834BF017FC4BF08D
:20BBE00015FCDAF80030BAF804201A834BF00EFC26E71832BB18D9F8048047F802A0C3E96E
:20BC000001AAC3F80CA01523A371431CE37199F8280049F071FFB8F80430A28823F44073D9
:20BC20001B041B0CA8F80430236811211A832046FFF77AFB7AE64BF0E9FB2368A2881A83EE
:20BC40004BF0E4FB4BF0E2FB23681B69EBE603F5F2331A6A42F400121A621A6A22F40012C1
:20BC60001A620DE703F5F0331A6A42F480021A621A6A22F480021A6202E703F5EE331A6A63
:20BC800042F400021A621A6A22F400021A62F7E64BF0BCFB4BF0BAFB4BF0B8FBD0E618322B
:20BCA000BB18D9F8048047F802A0C3E901AAC3F80CA099F8280049F01FFFB8F8043023F4B2
:20BCC00040731B041B0CA8F804302FE62DE9F84307460EF079FCDFF84C8007EB8709044602
:20BCE00008EBC90542F20F7604E00EF06DFC031BB3420ADC6B7E002BF7D108EBC90898F856
:20BD0000180080F00100BDE8F883B8F8403E013338469BB2A8F8403EFFF7B4FD0020BDE8C3
:20BD2000F88300BFD818002070B500EB8003274D05EBC30255F833305C68A38A84B09BB2DB
:20BD40000393039B13F4706F1CBF01231376039B13F4E06F4FEA80060CD1A38A304423F4F9
:20BD6000706305EBC0051B041B0C0022A3826A7604B070BD238BA38823F480631B041B0CD4
:20BD8000A380039B9A05E8D423889B05E5D42388D9050FD52388DA05FCD423889BB243F48D
:20BDA0000073238023889B05FCD40190FFF76AFD0198D2E723889BB243F400732380A388A2
:20BDC00023F440731B041B0CA380C6E7D81800200020A9E70120A7E70220A5E72DE9F84F09
:20BDE0002F4F00EB800407EBC404D4F80480B8F1000F04D09A46637E03F0FF0923B14FF0F1
:20BE000000094846BDE8F88F0E46934605460EF0DBFB0A9B7600F6B2C4E908330123A67628
:20BE200084F81BB084F81D90A37784F81CA0637684F81890B8F804209105064622D4B8F8E7
:20BE40000030DA0512D442F20F7404E00EF0BCFB831BA3421ADCB8F800309B05F6D4B8F82A
:20BE600000309BB243F48073A8F80030B8F804309BB24FF0010943F44073A8F80430484685
:20BE8000BDE8F88F99464846BDE8F88FB7F8403E01339BB22846A7F8403EFFF7F3FCB0E728
:20BEA000D8180020F8B590F871301C09013C052C0FD81B4E06EB4402054632F8200C03F0EE
:20BEC0000F0340FA03F2D20703D595F87C70012F01D00120F8BD07FA03F3013B184034441D
:20BEE0004DF0A2F914F8142C0E4C104454F8302004EBC0041069A3881840EBD0EB6E0022EF
:20BF000085F87C2093F8212020460221FFF76CFB2A6E93899BB243F0080338469381F8BDD0
:20BF2000D4BE050870230020094BD3F8442ED3F8481E40F62A00002350604B620B889BB22D
:20BF400043F001030B80136843F0010313607047D81800201D4B1E48196C1E4A10B441F083
:20BF600080510124196404625321FF24CA205462506251625B6FDB0085B017D41648042302
:20BF8000002102910290029A1A440292029A04331C2B1160F5D103910390039B0393039B83
:20BFA0000E4A1A6005B05DF8044B70470A4B002201920193019B0193019A084B12689A428D
:20BFC000DCD105B05DF8044B704700BF0038024000000E42002800405028004031666542BD
:20BFE00010B5174C84B00139002389B2A042ADF80C30ADF806308DF80E30029113D0114B1A
:020000040800F2
:20C00000984210D003F5804398420CD003F58063984208D003F58063984204D00A4BD3F8BF
:20C02000B4375B0802E0084BD3F8B437B3FBF2F201A9013AADF8042046F0E8FA04B010BDEE
:20C040000004014000000140D818002030B50446006EA268838923F400531B041B0C8381E3
:20C06000637995B013F0040F4FF00001019214BF4FF480520A46ADF808201A031B0203F480
:20C080008063ADF80C302379ADF80E1002F40052ADF80A20DA0744BF0422ADF80E209B07E7
:20C0A000ADF8101005D5BDF80E3043F00803ADF80E3001A946F0BCFB6279236ED50700F1FD
:20C0C0008B8012F0080F9A8A48D092B242F008029A829A8992B242F400529A812279D007E8
:20C0E00032D5E06B002800F089800023E26D0893CDE90C33CDE91033CDE912334FF480759F
:20C100000A936369E1680E9506920793626C05924FF480634FF480350B9309910F9546F003
:20C120003DF905A9E06B46F0CFF9E26B216E136843F0010313608B8A9BB243F040038B82EC
:20C14000536822799BB2636591070DD4226E93899BB243F40053938115B030BD22F0080296
:20C160001204120C9A82B4E7206C002852D02369A26D0993A36CCDE90532402300254FF400
:20C18000803108934FF480630B930F91CDE90C55CDE91055CDE9125507950A950E9546F08C
:20C1A000FDF8206C05A946F08FF9236C226E586940F080005861186840F0160018605D604E
:20C1C000938A9BB243F0800302F10C0193820B6843F040030B60BAE71E498B4224D0A1F577
:20C1E0004C418B421ED001F580618B421ED102200121FEF797F96279236E62E74FF6DF7151
:20C200001980D96841F02001D960D96841F01001D96099E7226ED36843F0800302F10C01FC
:20C22000D360D4E70120E3E70020E1E701F580618B420AD001F580618B4208D001F54441C8
:20C240008B427FF43EAF0520D2E70320D0E70420CEE700BF001001402DE9F84F4D4C04EB2B
:20C260008004D4F82C4A002C7DD0E56E002D76D01F46EB6A6361AB6AA3616B8EE3602B8E2D
:20C2800023616B682366444B2360444BA160A3660646204690460DF05DFC94F871000CF03C
:20C2A00025FC814695F8200094F870B0A24600284ED10223390784F87C3036D418F0020F5E
:20C2C00010D0B9F1000F0DD00B2389F80630731C89F807303B0648D495F8212048462221C0
:20C2E000FFF782F918F0010F04D1E26B9AB15046BDE8F88F58460CF0F9FB0028F5D00C22DD
:20C300000136C671827195F821202221FFF76CF9E26B002AEBD195F8241095F8220089091B
:20C3200049F00AFB5046BDE8F88F0136F6B2B9F1000FDAD00B237A0689F8076089F806306E
:20C3400009D595F8212042214846FFF74DF9CCE749F0D2FBADE795F821201221F4E7AA46EB
:20C360005046BDE8F88FA246C1E794F871000CF0BDFB226E938923F008031B0401211B0C88
:20C38000938184F87C100028ACD02021FEF7CCFFA8E700BF04000010C8BE0508A5BE00087C
:20C3A000BFF34F8F0549064BCA6802F4E0621343CB60BFF34F8F00BFFDE700BF00ED00E0A4
:20C3C0000400FA0508B50021032046F0FFF872B6FFF7E6FF08B5184CD4F84C2E94F8520ED6
:20C3E0004AB11168938809690B40F8B9003B18BF0123002BF4D1142010F032FC00BFD4F82D
:20C400004C3E63B11A689B88116994F8522E0B4042B9003B18BF01230BB1FFF7D3FFFCF760
:20C4200073FCEBE7B3FA83F35B09F5E7B3FA83F35B09002BD4D1DEE7D818002008B572B647
:20C44000FFF7AEFF00B583B00D49002200920091009B0C330093009B1B68012B02D003B07A
:20C460005DF804FB01920191019B06490C330193019B1A600B6883F308884B689847FEE77F
:20C48000502800400000FF1F38B5FFF763FDFFF7D9FF012046F0AAF8704A936823F00303EE
:20C4A0009360936813F00C0FFBD113686B49002840D143F00103136041F288330A68950796
:20C4C0005BD4013BFAD1664C664D644B664AEA60664A596FAA60596B654821F080015963D7
:20C4E000596F41F080715967196B41F4CE0119635A6B5A639A6B9A631A6C02431A64596CFC
:20C500005C4A0A435A640EF017F8D4F8B4375A4AA2FB03239B09013BB3F1807F09D24FF0A2
:20C52000E022F02053610021072385F823009161136138BD43F4803313600A68940341F256
:20C54000883304D4013BBED00A689403FAD5444C4A4A4B4BB0FBF3F3B0FBF2F0B3EB400FE1
:20C5600018BF18464FF48002B3FBF0F3C4F8682EC4F8540EC4F8583E09E0394C00210822B5
:20C580000223C4F8681EC4F8542EC4F8583E022046F02CF803280FD83A4BD4F8581E03EB61
:20C5A000C0008588C2884388C4F8605EB3FBF1F3C4F8642EC4F85C3E284B33491A6C42F042
:20C5C00080521A640A6842F440420A609A689A609A6842F400429A609A6842F4A0529A60E3
:20C5E000D4F8680ED4F8542ED4F85C1E024342EA8112D4F8601ED4F8640E490842EA0062FA
:20C60000013942EA01425A601A6842F080721A601A689201FCD51D4A40F205711160996830
:20C6200021F003019960996841F00201A2F580629960936803F00C03082BFAD1D4F8580E18
:20C640001349D823B3FBF0F39B0143F000530120C2F884308866FCF7BFF935E70038024012
:20C66000D818002000ED00E00005FA0500000020FFC9FE36335F0700D34D621080841E0070
:20C6800040420F00F8BE050800700040003C02400000474210B584B000230446ADF80C3048
:20C6A0000068ADF806308DF80E3003F18043013903F5823389B29842029114D0A3F58063CF
:20C6C000984210D003F5804398420CD003F58063984208D003F58063984204D0204BD3F8E3
:20C6E000B4375B0802E01E4BD3F8B437B3FBF2F301A9013BADF8043045F088FF2168194AF1
:20C700000B8819489BB243F001030B80002301E050F83320914208D001330E2BF8D1002076
:20C7200004B0BDE81040FCF7E5B8104A02EBC30393F8614D2046FCF7DDF81B2C05D11920F6
:20C7400004B0BDE81040FCF7D5B82E2C08BF2C2004D104B0BDE81040FCF7CCB804B010BDCD
:20C76000D81800200000014038BB0508DCAD050870B50468A30AA3F58013522B51D83C4D3A
:20C780002B4493F8F4530D2D4BD840798608002954D005EB850305EB4303B4F80CE04FEAE8
:20C7A000900C33440220334E00FA0CF040EA0E0006EB830C80B2CCF85015CCF86025A08150
:20C7C000EFF3118C502383F312882C2305FB03F3F118D1F84C2562B3274BC1F870250432C4
:20C7E00026482C2105FB01F1084414310B4453F8041B19B1116053F8042C04329842F6D1B5
:20C8000000235FFA8CFC13608CF311882C2303FB0565D5F870352BB1A3899BB243F00103D4
:20C82000A38170BDA38923F001031B041B0CA38170BD03F12402104B1A44D1E7B4F80CC0CA
:20C8400005EB8503304605EB43034FF0020E33441FFA8CFC074E0EFA00F02CEA0000A081C9
:20C8600006EB8300C0F85015C0F86025A8E700BFDCAD0508D8180020241E0020481E00200E
:20C8800001490248FDF7CCB9241E00200000014010B5064C064804F24C51FDF7C1F904F549
:20C8A000DB610448BDE81040FDF7BAB9D8180020000001400044014002494FF08040FDF780
:20C8C000AFB900BF501E002001490248FDF7A8B97C1E00200004004001490248FDF7A0B9DB
:20C8E000A81E00200008004001490248FDF798B9D41E0020000C004001490248FDF790B902
:20C90000581F00200004014010B5064C064804F5D061FDF785F904F25C710448BDE8104036
:20C92000FDF77EB9D818002000040140001C004001490248FDF774B9841F00200040014022
:20C9400001490248FDF76CB9DC1F00200048014001490248FDF764B9082000200018004041
:20C9600001490248FDF75CB9602000200020004010B50C2937D8DFE801F097363636663684
:20C980003636373636360700038C5488B2F80CE023F480531B041B0C0384038CB0F804C098
:20C9A000818B21F4E6414EEA040E0904148823F40053090C41EA04211B04754C1B0C43EA39
:20C9C0000E33A0421FFA8CFC9BB289B200F0AE8004F58064A04200F0A9809268A0F804C0BF
:20C9E00081830264038410BD038CB2F80CC0548823F480731B041B0C0384038CB0F804E0A6
:20CA0000818B23F400731B044CEA040C21F073011B0C43EA0C230904B2F800C0090C41EA5C
:20CA20000C0C5B4988421FFA8EFE9BB268D001F58061884264D09268A0F804E0A0F81CC087
:20CA4000C263038410BD038CB2F80CC0548823F010031B041B0C0384038CB0F804E0018BE2
:20CA600023F020031B044CEA040C21F4E6411B0C43EA0C130904B2F800C0090C41EA0C2188
:20CA80001FFA81FC424988421FFA8EFE9BB269D001F58061884265D09268A0F804E0A0F89C
:20CAA00018C08263038410BD038C5488B2F80CE023F001031B041B0C0384038CB0F804C085
:20CAC000018B21F073014EEA040E0904148823F00203090C1B0421432D4C1B0C43EA0E03C4
:20CAE000A0421FFA8CFC9BB228D004F58064A04224D09268A0F804C001834263038410BDE8
:20CB0000D189548A23F4006343EA0121138A2EF4405E23434EEA031E94884FF6FF330B401A
:20CB200043EA04231FFA8EFE9BB284E7148A2CF4804C4CEA841C1FFA8CFC4EE7D489B2F807
:20CB400010E023F008032343548A2CF4407C4EEA040E948823F004034CEA0E0C1FFA8CFC36
:20CB60002343C6E7D189548A23F0800343EA0111138A2EF4406E23434EEA830E94884FF698
:20CB8000BF730B4043EA04131FFA8EFE9BB283E7000001402DE9F04FA24BDFF8A49293F85D
:20CBA0007E3EA14EA14F8FB0CDE90139013BDBB200930025DFF88CB2DFF88CA25B46D34656
:20CBC0009A464FEA9A23A3F58013522B4CD8334493F8F4330D2B47D8FC56019B012B40F0E9
:20CBE0000181012C35D14FF000084146204610F0C1FB10F04DFC037813B1542B40F0F980E0
:20CC000008F104081FFA88F8B8F1100FEDD14FF0000E8DB3494600200CE0334493F8F4339F
:20CC20000D2B0ED8FB56A3420ED00130A84201F580711EDA8A6813689B0AA3F58013522B0E
:20CC4000EBD90023A342F0D153799BF805209A42EBD1774B5B454BD05BF81CAF4FEA9A239A
:20CC6000A3F58013522BB2D9009B012BF1D90024B9E7BEF1000FECD15846FBF7A5FBC3B20C
:20CC8000022B9BF805C000F23483431C5BB203EB43034FEA830E644B664903F5727004E0E0
:20CCA000984200F0268353F82C1F5145F8D11A796245F5D153F80E40002CF1D05E480023BD
:20CCC0004268A24203F1010300F08980102B00F12400F5D14FF0FF33584A03EBC30302EB0B
:20CCE000830393F86431002BB3D1029BC3F808B0029B013503F58073042D02937FF45AAFCF
:20CD0000DFF848B10BF59E730027ABF5816A9846DAF8243ABB425FDDDBF80C50002D5BD0B2
:20CD20009BF81030A88802932B68DAF80460019303F13F41B0FA80F301F57E010393002E34
:20CD4000C3F11F034FEA9121009340F38480002302E00133B3427BD01C0259F804208A4270
:20CD6000F7D14C440099029B8BF8103003260137CBF80410CBF80C50CBF81840AE71EF7171
:20CD8000636CE26C0D4649008E401E43012303FA01F111439AF800206664E1647AB303FA59
:20CDA00005F11A46236D0B432365019B89B21883D4F8A000FBF744FB2046FBF797FC012399
:20CDC000082F8BF81C308BF81D3088F811300BF1200B08F118089BD10FB0BDE8F08FDBB2A0
:20CDE000013B79E7022B7FF4FEAE082C3FF4FBAE2FE74FF0010E002D7FF40CAF29E70399D0
:20CE0000C1F12F05009903FA05F58B4099B2236D2B432365019B5883D4F8A000FBF710FB20
:20CE2000CAE700BFD8180020DCAD050844290608F8BF050800000140D002002088010020C1
:20CE40000C0000100004014018BF05080C040010032B00F31F820AEB062332021869049242
:20CE6000002800F03F8299600131CAB283F805210692542283F804210136026805924479EE
:20CE8000CAF80460FBF7A0FA934AC3B2022B92F895EE844600F22D82461C76B206EB460622
:20CEA0008E498F48059AB600002305E00133172B00F01F8251F82C0F8242F7D10879A042ED
:20CEC000F4D188590028F1D02C2101FB03F30CEB4C0C03EB8C0C814B63441969049B534484
:20CEE000C3E906017F4B00211E461C466368984216D00131102904F12404F7D17A4B93F8A3
:20CF00004021002A00F0E7817849794A794BCAF8681ACAF8602ACAF8703A0FB0BDE8F08F07
:20CF200001F1010C5FFA8CFC6F4B07960CF1FF3C0CEBCC0C03EB8C0C9CF864310593002B41
:20CF4000E2D1049E069B8CF86531F31103EB262000EB001368488C2400EB83003112674BC8
:20CF600004FB01F103EB41010AEB0603C3E93C145421019E8CF864113321C3F8AC10DE6080
:20CF8000C3F8A8005E4B04999A4209EB010400F07681534B9A4200F0728103F580439A4238
:20CFA00000F06D8103F580639A4200F0688103F580639A4200F06381474BD3F8B407BEF1B1
:20CFC000060F4FEA500000F061814E4B4E49BEF1070F18BF9C464D4B08BF8C464C4918BF96
:20CFE0001946B0FBF1F1B0FBFCFC1046049A01390AEB020389B20CF1FF3CA3F8B0C0A3F861
:20D0000068104FF000060193A165002302F154014944A4F85C60636545F0F8FA019B3D4A57
:20D020001B690193186803889BB243F080030380038809920A210B914FF48072022123F0EF
:20D040000103CDE90C121B04ADF828601B0C019E0380717909AAFFF78BFC3079002840F048
:20D060002281049B079E0AEB030200231069D2F818C001680A8892B242F001020A807268B9
:20D08000944503F1010300F00A81102B06F12406F5D14FF0FF33144A1F4E03EBC30302EB45
:20D0A00083031E4AD3F84831B3420CBF4FF400134FF48003166B33431363427918480C2AA4
:20D0C0009BBF184B03EB42030026B3F84061049B53449E8200232EE0D8180020DCAD0508C1
:20D0E00000000140D002002088010020BD710108B9710108C571010870270020A02A00200A
:20D10000000401404495080010552200D0DD060040771B0060000100006002400038024060
:20D1200014060010D4BE0508914200F0E0800133042B00F0E18050F83320002AF4D1DAF8F3
:20D140000C260132CAF80C260AEBC302DB00C2F8101603446A499A88059816439E80049B32
:20D160000AEB030690222346FEF71AF8B0690268002342F010020260C4E92533A367C4F878
:20D180008830C4F89C30F26962664FF48062E26704214FF40032C4E9232140222267D6F87A
:20D1A000AC206267F268049B1832A2664FF48052C4F88020D6F8A820E26603F164014FF4A4
:20D1C00080424944C4F8842045F07EF9B069049BD0F800E0C4F81CE0D0F814E0C4F820E064
:20D1E000D0F804E0C4F824E003F1AC01D0F808E0C4F828E00023D0F80CE0C4F82CE0C4E962
:20D200003733C4F8B830C4F8C030C4F8D030C4F8E430F369C4F8AC304FF48063C4F8C430FE
:20D220004FF4403C0423C4E935C3D6F8F430C4F8BC30F3681033C4F8B0304FF40063C4F82D
:20D24000C830D6F8F030C4F8B4304FF48042C4F8CC20494445F038F9B369A8881A68226355
:20D260005A6962635A68A2639A68E263DA6822641A6842F010021A602B68019372E5214B26
:20D28000BEF1060FD3F8B4077FF49FAEDFF87CC01D49A6E61B4A032382F8943E34E6DBB201
:20D2A0000593013BF7E60BF021FC069038B1019B0221DA79FEF798F9069B5422DA80019B81
:20D2C0001A68B2F844306FEA43436FEA53439BB2A2F84430C5E6542283F84021069A83F86D
:20D2E000412111E6074A022382F8943E0CE6DB002FE700235B68FFDE00239B88FFDE00BF8B
:20D3000089840008D8180020A0BB0D00882A11000C2911D8DFE801F023101010191010104B
:20D32000111010100700838B23F400631B041B0C43EA022292B282837047838B23F008035A
:20D340001B041B0C1A4382837047038B23F400631B041B0C43EA022292B202837047038BC1
:20D3600023F008031B041B0C1A430283704700BF2DE9F04FDFF870B29BF8004087B024B9BC
:20D380000124204607B0BDE8F08F934ED6F80C580DF048F99BF8B43A0390002B00F05882CD
:20D3A0008E4AA2FB05328E4B5209A3FB0213DB0803EB8303A2EB4303DAB204920BF23C62F3
:20D3C00002EB830300930BF61C1306F1E40401934FF00009924635E03B680293009B5C330D
:20D3E0000093019B30461433019344F0D7FF7A4B02988C2202FB0933002583F8D8507979A3
:20D400002A46FFF785FF22467979FFF7B1FA79790822FFF77DFF402344F83C3CA4F14801A4
:20D42000304645F051F8336843F0100333609BF8B43A09F1010999450AF15C0A04F18C043B
:20D4400080F2D480DBF83836039AD31A04D454F8082C9342C0F2AB815F4B54F8587C266AD6
:20D460008C2202FB093393F8D830002BB4D03968736834F8542C02911FFA83FE8B89CEF15B
:20D48000160E9BB223EA0203BEF1070F8B81A5D9DBF824390133CBF82439A36A05939C46AF
:20D4A00000225CF8045B012190461BE0DCF80000B8F1140FA0EB05031DDC13F1080548BF60
:20D4C00003F117052B1108EB25180546581E013102FA03F3012282408E4542EA03020CF105
:20D4E000040C08D38E45E1D8C8F11503DCF800504FF01508EAE7B8F1150F60D13948C2F35F
:20D500008423C2F3441100EB830300EB8101D3F85C31D1F85C111B0243EA011302F01F017E
:20D5200000EB8101C2F3C43200EB8202D1F85C11D2F85C210B4343EA023383EA132282EA29
:20D54000121202F00F020F2A39D1C3F30F134FF6FF72934233D0B3F5606F00F03681019A42
:20D5600093819AF85820049DAA4211D00098DAF800208168521ACAF80020016BDAF80420FC
:20D58000521ACAF804200022826002638AF85850DAF8002000990132CAF800208A680132E1
:20D5A0008A604FF6FF7293427FF418AFDAF804300133CAF804300B6B01330B630EE7DBF8AC
:20D5C00020390133CBF82039B9F1000F00F0E5804FF6FF73C5E700BFD81800201F85EB5182
:20D5E000CDCCCCCCD4BE05080400001001228BF8202ACBF83856002B3FF4C2AE974890F8D1
:20D600009410890700F1BE80D0F88C10086849798A40018C92B289B221EA02010184018C1B
:20D6200089B20A43012B02843FF4AAAE8B4991F82021970700F1C080D1F818211068547971
:20D64000018C012289B2A24092B221EA02010184018C89B20A43022B02843FF491AE7F4924
:20D6600091F8AC21960700F1C180D1F8A42110685479018C012289B2A24092B221EA020193
:20D680000184018C89B20A43032B02843FF478AE724991F83822950700F1B180D1F830226C
:20D6A00010685479018C012289B2A24092B221EA02010184018C89B20A43042B02843FF484
:20D6C0005FAE664991F8C422940700F1A180D1F8BC2210685479018C012289B2A24092B275
:20D6E00021EA02010184018C89B20A43052B02843FF446AE594991F85023900700F191806E
:20D70000D1F8482310685479018C012289B2A24092B221EA02010184018C89B20A43062BA6
