:020000040800F2
:20000000F0FF01209D66040805670408F56F01080567040805670408056704080000000074
:20002000000000000000000000000000056704080567040800000000056704089D60010852
:20004000056704080567040805670408056704080567040805670408E5820008ED820008EA
:20006000F5820008FD82000805830008BD800008D1800008E5800008F98000080D810008C8
:2000800021810008358100080567040805670408E9D2030805670408056704080D830008BA
:2000A000A19E0008A59D0008B19E0008959D0008CD9D0008DD9D0008ED9D0008897D00088A
:2000C0007D7D0008BD7D0008B17D00080567040805670408F55F0108016001080D60010879
:2000E00015830008056704080567040805670408919E000805670408819E000805670408AA
:200100000567040805670408FD9D00080567040819600108256001080D9E0008B1E2030874
:200120005D810008718100088581000899810008AD81000805670408056704080567040811
:200140000567040805670408056704080567040805670408056704080567040805670408DF
:200160000567040805670408056704080567040805670408056704080567040805670408BF
:20018000C19E000805670408257E0008197E000805670408000000000567040805670408CE
:2001A00005670408056704080567040831600108F17D0008E57D000805670408056704086D
:2001C00049810008C1810008D5810008E98100080567040805670408F061040001000000ED
:2001E000FFFFFFFFFFFFFFFFFFFFFFFFFFFFFFFFFFFFFFFFFFFFFFFFFFFFFFFFFFFFFFFF1F
:20020000FFFFFFFFFFFFFFFFFFFFFFFFFFFFFFFFFFFFFFFFFFFFFFFFFFFFFFFFFFFFFFFFFE
:20022000FFFFFFFFFFFFFFFFFFFFFFFFFFFFFFFFFFFFFFFFFFFFFFFFFFFFFFFFFFFFFFFFDE
:20024000FFFFFFFFFFFFFFFFFFFFFFFFFFFFFFFFFFFFFFFFFFFFFFFFFFFFFFFFFFFFFFFFBE
:020000040800F2
:020000040800F2
:20400000B1BE0A00FA010000290300000E000500030000000000020100000A0013020000C8
:20402000000001001C001F020000FFFFFFFFFFFFFFFFFFFFFFFFFFFFFFFFFFFFFFFFFFFF58
:204040002E0006000200E0010600000001002021263D000000000002000001020304050687
:204060000700F4012E04D007E803A8070C004500160200002201012001022101032603049F
:204080003D02050000000000000000000000000000000000000000000000000000000000DC
:2040A0000000000000000000000000000000000000000028002F0002004D6574656F723704
:2040C000352050726F00000000000000000000000000000000000000000000F60021020041
:2040E0000000000000000000000000000000000000000000000000000000000000000000C0
:2041000000000000000000000000000000000000000000000000000000000000000000009F
:2041200000000000000000000000000000000000000000000000000000000000000000007F
:2041400000000000000000000000000000000000000000000000000000000000000000005F
:2041600000000000000000FFFF000000FF1E0000FF3C0000FF5A0000FF780000FF96000084
:20418000FFB40000FFD20000FFF00000FF0E0100FF2C0100FF4A0100FF0000000000000029
:2041A00000010B020D0A03050B030D0A030A0B040D0A03080B040D0A03070B030D0A030017
:2041C0000000000000060A0100000203060000000316002C000000E803D007E803D007E812
:2041E00003D007E803D00732012500020000000000000000000000000000000000000000C9
:2042000000000000000000000000000000000000000000000000000000000000000000009E
:2042200000000000000000000000000000000000000000000000000000000000000000007E
:2042400000000000000000000000000000000000000000000000000000000000000000005E
:2042600000000000000000000000000000000000000000000000000000000000000000003E
:2042800000000000000000000000000000000000000000000000000000000000000000001E
:2042A0000000000000000000000000000000000000000000000000000000000000000000FE
:2042C0000000000000000000000000000000000000000000000000000000000000000000DE
:2042E0000000000000000000000000000000000000000000000000000000000000000000BE
:20430000000000000000000000000000000000000000000000000000002A002B0000000048
:204320001E001E001E0005011E011E011E011E011E011E011E011E011E011E011E011E01A9
:204340001E011E120001000200E80364000F0A000105001E000E0016000300C4090000B4D7
:204360000200000A0027000000200300007E000C0006002D32030505052D2D2D4848360099
:2043800064CE07CE07CE07000000000000000000003200030707070000004343430064CEF5
:2043A00007CE07CE07000000000000000000003200030707070000004343430064CE07CE32
:2043C00007CE07000000000000000000003200030707070000004343430064CE07CE07CE12
:2043E00007000000000000000000007E002900020000002030000001010010000002011098
:204400002000000B03203000001B02203000000000000000000000000000000000000000B1
:2044200000000000000000000000000000000000000000000000000000000000000000007C
:2044400000000000000000000000000000000000000000000000000000000000000000005C
:2044600000000000000000000016002300020019000000DAFFD3FFE6FF0100000000002037
:20448000000B000300B8014A0159012C0164010100000001000A019A01001E0A00000296B6
:2044A000020E00080064005200000000003C66310030003C66410030003C66000030003214
:2044C0004B4B0032002800000000000055F4019001013C8700460000000000320090015EE6
:2044E00001F40100000A64C8009001A50000000F00010F0114004B3200005A140B000052DE
:2045000000A500001400280100C81E2C3A00251464010047462034306D6D00001E32323230
:20452000963200013C0A0F5A0500000287735F6E64231E016E5F056401500046055064F415
:204540000114001A0400190F3264004B00000000002D50280078002F542E007D002D500057
:20456000007800324B4B0032002800000000000055F4019001013C87005000000000003280
:204580000090015E01F40100000A64C8009001960000050F00010F0114004B3200005A14B5
:2045A0000B00004B009600001400280100C8001E220025146400000000000000000000002D
:2045C000003232329632000019070F5A050000026464646464646401646405640141004677
:2045E000055064F40114001A0400190F3264004B00000000002D50280078002F542E007D87
:20460000002D5000007800324B4B0032002800000000000055F4019001013C870050000094
:20462000000000320090015E01F40100000A64C8009001960000050F00010F0114004B3250
:2046400000005A140B00004B009600001400280100C8001E2200251464000000000000001E
:2046600000000000003232329632000019070F5A050000026464646464646401646405645E
:2046800001410046055064F40114001A0400190F3264004B00000000002D50280078002F5D
:2046A000542E007D002D5000007800324B4B0032002800000000000055F4019001013C8745
:2046C00000500000000000320090015E01F40100000A64C8009001960000050F00010F01F1
:2046E00014004B3200005A140B00004B009600001400280100C8001E2200251464000000ED
:204700000000000000000000003232329632000019070F5A050000026464646464646401EE
:204720006464056401410046055064F40114001A0400190F3276000D0001000100000014ED
:204740000504050000000000000000000504050000000000000000010504050000000040EE
:20476000000000020504050000000001000200030504050000000000000000040504050003
:20478000000000000000001E05020200000000000000001F050202000000000000000028A2
:2047A0000504050000000064005200120025020000FFFFFFFFFFFFFFFFFFFFFFFF3E0018B2
:2047C000000400000103020405060709000000000001006400DC051A046C07001975034305
:2047E000080E000001000000001E1E1E7D010100000000000000000000000016001B020096
:204800000006000000E803000000000000000000001000000201000000000000000102038E
:204820000042001A020000000000000000000000000000000000000000000000000000001A
:20484000000000000000004245464800424554414650564734373300000000000000000056
:204860000001000A002E020000000000008600040000000000000000000000000000000073
:20488000000000000000000000000000000000000000000000000000000000000000000018
:2048A0000000000000000000000000000000000000000000000000000000000000000000F8
:2048C0000000000000000000000000000000000000000000000000000000000000000000D8
:2048E0000000000000000000000000000000000000000022001C020000000201140000342D
:204900000200000000840301000000000000000000000000000E00260003000100000100D4
:204920000100001A00080201001516170E0D2D2E2F0A0B2324250908000000FFFF2A000AA6
:20494000000900300000000000F40100000000000000000000020000029E077D000000F40F
:2049600001000105016400A600FD070100C000010A3909B900390182012D0E0E0E150AEE39
:204980000D2100200A410255015501550155015501550155015501F5392C00550155015571
:2049A000016100410055010B015501620055015501550181009600210055015501E100551E
:2049C000015501550155015501C10982005501550155015501550155015501A10955018E4A
:2049E000005501550138015501550155015501A0005501550155015501550155015501552B
:204A0000015501550155015501550155010A0013000100080044107A00F5010C0098086497
:204A2000001401000A010A0000FF1F0400142800002C3700000000FFFFFFFF460001020046
:204A4000000000000000000000000000000000000000000000000000000000000000000056
:204A60000000000000000000000000000000000000000050009DFF040000FFFFFFFF030047
:204A8000000005180B0C0000000001C800413514000900020200000300001200F601020074
:204AA0000000000001000000000000000C00F80103000101F40114001200020001000000CD
:204AC000000000000000000000001C00FE0100000110000001110000010000000000000097
:204AE00006FFFFFFFF001E00060201001F27000020030000000020030000000020030000DE
:204B0000000020030C00F701000018010000000014001A0000007E05EA05B4053200E803DF
:204B2000D00700000B001400010003000023002700FD01000019122A3A00000000000000A4
:204B40001A132B3B0000000000000000000000000000000000000C001D0200000000000097
:204B600000000A00F90100003F3E0000160012000300000006010000055347343700000078
:204B800001002A001F000500000000000001000100050000010203000000000000000000B9
:204BA0000000000000000000008017000C003800040000642C01640016001B0003000022CB
:204BC00000020301F401320001640000780008001000010000050B00190000000000280160
:204BE000001200200206000364646464003200F401960008000E02000000000A0005020002
:204C000000000000000C002C020100190019000A0007002D020000000A00010100000000DB
:204C200000000A000001000026029CFF0900020100006E0A010E002A02010082009001F4DF
:204C40000102004600290200000000000000000000000000000000000000000000000000E0
:204C6000000000000000000000000000000000000000000000000000000000000000000034
:204C80000000000000000000001A0023020300000000000000000000000000FF00000000D3
:204CA0000000000700090200000000007F7D0000FFFFFFFFFFFFFFFFFFFFFFFFFFFFFFFFF6
:204CC000FFFFFFFFFFFFFFFFFFFFFFFFFFFFFFFFFFFFFFFFFFFFFFFFFFFFFFFFFFFFFFFFF4
:204CE000FFFFFFFFFFFFFFFFFFFFFFFFFFFFFFFFFFFFFFFFFFFFFFFFFFFFFFFFFFFFFFFFD4
:204D0000FFFFFFFFFFFFFFFFFFFFFFFFFFFFFFFFFFFFFFFFFFFFFFFFFFFFFFFFFFFFFFFFB3
:204D2000FFFFFFFFFFFFFFFFFFFFFFFFFFFFFFFFFFFFFFFFFFFFFFFFFFFFFFFFFFFFFFFF93
:020000040800F2
:20600000074BD0F8C4105B68D0F8D0205B1A9A42B8BFC0F8D030012380F8FC3000207047F8
:20602000001000E04368C26C10B49A61EFF31182502383F312884168046C0B6823EA040340
:20604000846C2343D2B20B6082F31188436981681A68096822F001021A60D0E908421C6057
:206060005A60D0E90A429C60DA60B0F86420CA6200235DF8044B0377704700BF30B5EAB19C
:206080008E464FEA014C034600F1C005002419689A6841EA0C0142EA0E029A60C3E90014D2
:2060A0000C33AB42F3D1D0F8C030C0F8C44043EA0E03C0F8C030C0F8C84030BD4FEA014E61
:2060C0008C46E0E783695969B3F810C00A6830B49C6822F0010224680A60E26822EA0C0235
:2060E000E260046890F814C02068082202FA0CF202403AD123480578022000FA0CF06060DD
:20610000002D30D0187F012830D0D3F8D8200132C3F8D820EFF31181502282F31288586834
:206120001C6C026822EA04025C6C2243C9B2026081F31188D3E90C405A6999680968146093
:206140005060D3E90E409460D060B3F89C00C86210680124204310601C7783F8D540CA682B
:206160001B8A1343CB6030BC7047FEE783F8D520D3F8DC000A68013022F00102C3F8DC000B
:206180000A60F0E79015002010B40C4C6368002B11DD002004F1080C0146DCF8943003F1FD
:2061A000C00259600C339342FBD16368013083420CF1E40CF1DC5DF8044B704790150020E9
:2061C000704700BF024B03EB401090F8B503704790150020704700BF0B4890F8CC1489B197
:2061E00001EB4101002310B4490000F2D4401C4650F82320063302B114608B42F8D15DF803
:20620000044B7047704700BF901500200B4890F8CC1489B101EB4101002310B4490000F2F8
:20622000D4401C4650F82320063302B114609942F8D15DF8044B7047704700BF90150020C3
:2062400001207047034B00EB400003EBC00090F8E5047047901500201F4890F8CC34CBB3E5
:2062600000222DE9F04300F2D4431C4F50262C25144607E053F8181B0C6090F8CC140132B2
:20628000914225DD197C0029F4D059684FEA912EAEF5801EBEF1540F4FF0FE0C98BF17F8EC
:2062A0000EC0EFF3118E86F31288D1F82490D1F8148005FB0C0C09F1010948F00108CCF881
:2062C000BC955FFA8EFCC1F814808CF31188D1E7BDE8F083704700BF901500201C80040872
:2062E00007EE900AB8EE670A704700BFBCEEC00A10EE103A98B27047394BD3F8043530B459
:20630000F3B938490223C1F8D037C1F8D4374FF4A870C1F8D837B0F5A87344BF6FF4A0734B
:20632000C3181B115B002A33C1F8DC37DB00B3F50C7F31DA5B10012030BCC1F8E0377047BA
:20634000294A2849A2FB03239B0C0324082BC1F8D04724D023F00802102A2BD01B2B1BD14D
:20636000224A234BC1F8D84702EB40000225B0F85820C1F8D4575200A2F5AB7283FB02305D
:20638000D317C3EBA0035B002633C1F8DC3703EBC303B3F50C7FCDDB002030BC7047134B92
:2063A00003EB40000222B0F85800C1F8D42701239840AEE70D4A02EB4000102BB0F8580087
:2063C0004FF00202DDB24FEA4000C1F8D42704D0182D08BF23469CD0DEE7134699E700BFAC
:2063E000002000409015002083DE1B431C800408398EE3380123437700207047D0E90B2195
:2064000008B583690B4483610AB108469047002008BD00BF436A1B681B6A5B685B78024689
:2064200013F0010008BF5077704700BFC2628161704700BF704700BF043070470C4B93F895
:20644000E827D3F8E4170244D2B283F8E82793F8E82708441206C3F8E40705D593F8E827FB
:2064600082F0800283F8E827024B01221A70704790150020000000202DE9F047144FD7F889
:20648000EC57ED0A1ED00026B04607F62409D7F8F0371048D3F828A0C7F81C88AC19641011
:2064A00010234A46E102D0470F280BDD0A4B03F1100C53F8041B013107D16345F9D125464A
:2064C000B542E4DCE802BDE8F087661CF8E700BF90150020801D0020B41D0020184BD3F83E
:2064E0003418D3F838288A1A322A15D8D3F84C288A4200D37047D3F83C28E2B1106892884F
:2065000010B44469224218BF120432315DF8044B8261C3F84C187047D3F83C283AB193F854
:20652000480811689288C00748BF12048A610022C3F84C2870473231C3F84C18704700BFA9
:2065400090150020064AD2F83C383BB192F848181A689B88C90748BF1B04936100207047AC
:2065600090150020044B4FF40070D3F85838108000200B60704700BF9015002000207047CC
:20658000012070470120704700207047164BD0F8C0105A6810B50446D0F8B80071B1131ADB
:2065A00099420BDC94F8B030C4F8B820012B10D0D4F8B4300133C4F8B43010BDD4F8C430FC
:2065C000C4F8B8200344C4F8BC3094F8B030012BEED104F1C801201D0EF012FDD4F8B43029
:2065E0000133C4F8B43010BD001000E0CB070AD490F82830012B08D0C368B3F1807F03D9CC
:206600000123037770477047704730B51C4A1D4BD2F888485B68456AB4EB530F8DB04FEA81
:2066200053022AD20721022352085B0094429BB201D20139F8D1C268AB80B2F1807F1AD924
:206640000122027701A9B72000238DF804000291284602A9CDE903328DF814208DF8282054
:20666000CDE90633CDE908330B930EF0C9FC2A68136A002BFCD10DB030BD0223DBE700BF82
:20668000901500200000002030B590F82830012B8BB0044605D0407F48B1002363770BB05A
:2066A00030BD456A2B681A7B2ABB637F13B901200BB030BD1249009112490191022100239B
:2066C00001220291284669468DF80C208DF82020CDE90433CDE9063309930EF091FC2A68DC
:2066E000136A002BFCD1084B93F88D3803F0010383F00100D2E71B6A002BD6D00020CEE733
:20670000080000201C1E0020901500202DE9F0411F4F90F82820437FDFF878808AB0044698
:20672000A7F68C06012A06D00BB10023637701200AB0BDE8F081656A2A68117B11BB002B9B
:20674000F5D00023CDE90433CDE90633099301238DF80C308DF82030694602232846CDE927
:20676000008702930EF04CFC2A68136A002BFCD196F88D3803F001036377002BD7D094F82E
:206780002820CFE7126A002AD6D1002BCFD0D8E71C1E00200800002030B5234A234B95B09E
:2067A000044623480493CDE900200023151D21480990083ACDE90A23CDE90E33207F626AD9
:2067C0000595984206931093139311934FF0010312688DF80C3007938DF820308DF83430E9
:2067E0008DF848304FF0020514BF0523042302950C93136A002BFCD198B10F4B0A0E5A7301
:206800000E330A0A080C5A7099701870606A69460EF0F6FB636A1A68136A002BFCD115B0C3
:2068200030BD064BEDE700BF1400002015640008201E0020F5630008000000200D000020C7
:2068400010B5044694B050220749684641F012FA606A69460EF0D4FB636A1A68136A002BFB
:20686000FCD114B010BD00BF7C80040870B50546406A0068046A002CFCD1287F002839D032
:20688000264CA86905266665060E667704F11E0C8CF80200060C000A8CF800608CF8010064
:2068A000086816682066012B4FF00000A6662E63A06726D0022B1CD1536820674A68626788
:2068C0001E44174A84F86C000121E3672E6384F88010C4F88420134B697F686A03F1140282
:2068E000002914BF194611460EF08AFBEB6A7BB1286B70BD094C0420606504F11D0CA869B5
:20690000C6E7074A84F86C30C4E91C20E067E2E76B6A1A68136A002BFCD1E9E700000020AC
:20692000FD6300082400002000B583B081610192049A0093C26201236A4601A9FFF796FFF0
:2069400003B05DF804FB00BFF0B50746406A066895B01D46346A002CFCD13E4E3E48019085
:206960003E48049006F1A40000903B7F06940220029006F19C0C01208DF80C00CDF814C0E0
:20698000002B4FD0CDE90944CDE90E44CDE910440B0E0B92052286F89D308DF820400C95EA
:2069A0008DF834008DF84800139406F19E0307922B4C7268D4F888C89970080C090A597013
:2069C0001870BCEB520F786A4FEA52013ED207230222490852008C4592B201D2013BF8D1CB
:2069E0007B7F8280E3B905A90EF00AFB786A03681A6A002AFCD17268D4F89838B3EB520F11
:206A00004FEA520124D207240222490852008B4292B201D2013CF8D18280284615B0F0BD36
:206A20006946E1E70B920422CDE90933CDE90E33CDE910338DF8203013930C958DF8340065
:206A40008DF8480006F19D030792B1E70222C7E70222E1E700000020241E002015640008E0
:206A600090150020F0B5836993F8BC20012A8BB0054625D0023A012A2DD893F82C21D96F27
:206A8000164C62F07F030B708669D6F880305F1C0FCCEC46ACE80F00F36FCDE900370FCC83
:206AA000ACE80F0094E803008CE80300694606F110000EF0A5FAAB6919690A6A002AFCD1E9
:206AC000D3F880305A8852BAEA819A8852BA2A82DB885BBA6B8201200BB0F0BDCC800408C2
:206AE000F0B590F8BC30D0F88060012B8BB0044648D014D8C36F4FF0FF321A605A609A6050
:206B0000DA60D0F8C0300522B3F57A7FC0F8D02052D8032380F8BC3001200BB0F0BD023B99
:206B2000012BF9D890F82D31C26F394D63F07F031370D0F880305F1C0FCDEC46ACE80F00BF
:206B4000E36FCDE900370FCDACE80F0095E803008CE80300694604F110000EF051FA2269F8
:206B6000136A002BFCD173885BBAA4F8B030B3885BBAA4F8B230F38801205BBAA4F8B43015
:206B80000BB0F0BD90F82C2190F82D319B1A5B100133DBB206EB430236F813305BBAA0F89D
:206BA000B03053885BBAA0F8B23093885BBAA0F8B43001200BB0F0BD03691A7B1AB35B69C4
:206BC0000BB390F87830F3B190F82C31C26FC4F8840063F07F03137090F82C1190F82D31CA
:206BE000D0F880200B48C4F8E4005B1A07330121C4F8DC30E36F84F8E0100A44C4E9353281
:206C000084F8BC1088E7022384F8BC3084E700BFCC80040801600008F8B53A4C04EB4012D1
:206C200092F8B43303B9F8BD374B4FF49A7C0CFB004C93F8446193F845E19CF89E7882F83F
:206C40009A7376454FF000024FEA40158CF89E280ED00EEB4E0203EBC2024FEA4E0792F862
:206C6000482102F1FF3CBCF1010F3DD9032A35D0264B254403EB4010A5F898130DF09AFF82
:206C80002378D5F8B0239BB1D5F89C13D2F8943001248C4003F1C001420010F4004F90B2E6
:206CA00002D15A6822435A600C338B42F4D1F8BDD5F89C43D2F8943004F110020124944060
:206CC00003F1C001420010F4004F90B202D15A6822435A600C339942F4D1F8BD0EF10102DE
:206CE00002F00302B242C3D0774403EBC703034493F855110029BBD06319012283F89A23E0
:206D0000B6E700BF9015002088260020281900202DE9F8430FF016FA2C4CDFF8B8802C4DC3
:206D2000074600266068002845DD00231A464FF0E40C0CFB0341013391F8DD10834242EA36
:206D40000102F6D116435FFA86F91646D8F80430C3F3080363BBEFF311834BBB4FF0E02C32
:206D6000D4F83438DCF81810D4F834289342F7D1D5F8A8219142F3D8D5F8ACC14FF47A727D
:206D800002FB0CF0401AB0FBFCF002FB0300C31BB3F5FA6F01DC002EC4D1B9F1000F04D0ED
:206DA0000B4B93F8B021542A08D04846BDE8F8830FF09AF9EBE7B1460026C7E7B3F8B8216A
:206DC0000132A3F8B8214846BDE8F883901500208826002000ED00E02DE9F04F2DED028B02
:206DE000BD4F83B03B7801932BB9012003B0BDEC028BBDE8F08FD7F83438DFF8F0B208EE51
:206E0000103A07F566774FF0000AABF5E276D6F8B435534540F3FA80BB69D7F80480D3E9DF
:206E200033450FF08FF996F8B091009005F1004196F8CC0239390122B9F1540F04EB41018E
:206E400002FA08F204EB400301D1A6F8BA01994240F21581B3F800C01CEA020F00F0078142
:206E6000B3F802C01CEA020F00F01681B3F804C01CEA020F00F01281B3F806C01CEA020F76
:206E800003F10803E3D1A3EB040E99424FEA6E0E40F2F580A5EB0E05452D28BF452503EB14
:206EA0004505AB4280F0EF804FF0000C1C46E046614618881040884218BF023314D15888B7
:206EC0001040814218BF04330ED198881040814218BF063308D1D8881040814203F1080324
:206EE00002D19D42E5D802E09D4200F29880B8F1110F40F2C880D8F1150200F1C480774940
:206F00000098D1F8A8309E45D6F8D03238BFC1F8A8E0C11A00291CDB03F5F42303F5907348
:206F2000984298BFC6F8D0326C4B88BF0098D3F8A8306A4984BF0530C6F8D002052B86BFF7
:206F4000053BDBB2002386F8CC324FF0FF33C1F8A8304AB10CFA02F2C8F114084FF0010CAD
:206F60000CFA08F848EA020C5D4ACCF3C4330CF01F0102EB830302EB8101D3F8D800D1F804
:206F8000D830CCF3441102EB8101CCF3842C02EB8C0CD1F8D82043EA003343EA0213DCF83B
:206FA000D82043EA022383EA132282EA121202F00F020F2A4CD1B3F5803F49D2B9F1540F6D
:206FC0004FEA131304D1B6F8B4210132A6F8B421D6F8CC21B3F5606F02F10102C6F8CC2181
:206FE00069D00199ABF80C303E4B5C2018EE102A00FB0A300DF054FE0AF1010ABAF1080F4E
:2070000007F120070BF1140B7FF401AF0123012086F8C83203B0BDEC028BBDE8F08F1C1B12
:2070200031496410013481FB0401A1EBE4710129B8BF01210CFA01FC88440120013900FAE4
:2070400001F141EA0C0C33F8021C1C46114030E7B9F1540F24D0D6F8CC310133C6F8CC312D
:20706000D6F8C8310133C6F8C8310021BCE70233A3EB040E99424FEA6E0E3FF60BAF10B185
:20708000013886F8CC02B9F1540FB5D1B6F8B6310133A6F8B631AFE70433F4E60633F2E6D2
:2070A000B6F8B4310133A6F8B431D6F8CC310133C6F8CC31D4E796F8452102EB420206EBFB
:2070C000C202524492F855210D2A8AD1802301998BF81E3088E700BF9015002000000020A3
:2070E0001C8004085C290020565555554C28002010B5044640F040F881B22046BDE8104055
:207100008AE500BF38B50B4D00EB400005F2D44303EBC00393ED027AD3ED037AE7EE007A8A
:20712000C4002C44B0EE670A40F026F8D4F8D434186038BD901500202DE9F0411F4E96F876
:20714000442196F845319A4232D11D484568002D13DD002410F8088B2746B8F1000F1FD0E5
:20716000037F012B1FD042691368013443F00103AC4200F1E4001360EFD10EF0E3FFD6F83C
:20718000B845002C0ADD0F4B03EBC40419689A88C868083302439C42CA60F7D1BDE8F08196
:2071A000FEF740FFDFE780F8D470FEF73BFFDAE739F0FEFE0028C8D1BDE8F081882600205F
:2071C00090150020442C00202DE9F0412A4D95F8442195F845319A4248D195F8DC356BB3F6
:2071E00095F8DD45254B264F264E002140F20D3C34B3D3F8A820B3F8ACE0D2F8048018686C
:2072000008EA07084EEA080EC2F804E0D2F800E04EF0010EC2F800E0D0F8DC23324042EA8B
:207220000C02C0F8DC23C26842F48072C26095F8DC2501318A4203F1B803D9DCBDE8F0810F
:207240001A68B3F80480D2F800E0B3F8B4002EF0800EC2F800E0C2F82C805462D2F80CE05C
:2072600040EA0E00D060A3F8B440E0E739F0A0FE0028B2D1BDE8F08188260020682C002046
:207280000000FFFFE0E0FFFF0C4AF8B5136855692B4003EA000555617DB1094F0126B5FA87
:2072A00085F4C4F11F0407EB840306FA04F4D3F8A00B03689847A543F1D1F8BD00040140A8
:2072C000882600200269C3682DE9F04712EA03092AD005460E464FF000474FF00008B9FADC
:2072E00089F327FA03F2D2431B3B2A6109EA0209042B16D8DFE803F03B30251A0300B36A67
:20730000002B3FD003F1FF3A1FFA8AFAC6F82880746A34B123682046514698476468002CE1
:20732000F8D1B9F1000FDAD1BDE8F08770680028F7D0696B036889B29847B9F1000FCED18C
:20734000F2E7B0680028ECD0A96B036889B29847B9F1000FC3D1E7E7F0680028E1D0E96B1F
:20736000036889B29847B9F1000FB8D1DCE730690028D6D0296C036889B29847B9F1000F49
:20738000ADD1D1E7E96A1FFA81FAC1E7836910B51A4C04EB8303D3F8000C34F049FCB4F8B0
:2073A000203C0C2B0ED8DFE803F0070D0D0D220D0D0D1B0D0D0D1400D4F8E02BD36823F4A4
:2073C0000073D3600122002384F81D2C84F8223C10BDD4F8E02BD36823F48053D360F1E74E
:2073E000D4F8E02BD36823F40063D360EAE7D4F8E02BD36823F48063D360E3E78826002026
:2074000010B5846904F19C0034F012FCD4F89C305A681AB91A6822F001021A6010BD00BF2D
:207420002DE9F04704460068237D0268022101FA03F31A4209D0A6699E4D4FF49A7202FBB4
:20744000065292F8881911B14360BDE8F0879A499A4F4968C7F8241C97F8DD15002900F012
:20746000CB80D2F8A428D2F810C01168DCF8002022F00102CCF80020CA6822F48072CA60C7
:207480002A78002AE0D04FF49A7909FB06F905EB090A8B4ADAF8C409DAF8A438C1B208393E
:2074A000D3F80080A2FB01310909864A013120F0FF0091443BF064FAD7F82C3C01228AF855
:2074C0008829002B00F0CD80D8F800204FF49A7303FB065342F08002C8F80020D3F88429F0
:2074E0004FF0FF31B2F5807FC8F82C1000F0BE805BD8012A00F09280102A22D1D8F82020B0
:20750000D3F8C01922F01002C8F82020D3F8B82942EA0100D8F81820D3F8BC1922F47F424B
:20752000014342EA1122C8F81820D3F8B429D8F8203023F0A00343EA021343F01003C8F8EA
:2075400020304FF49A7303FB06550023D5F8C409C5F86039C1B2A3F133330839A3FB0131A1
:2075600009094A46013120F0FF003BF0C3F9D5F8C429206853681B0C1B0443F016035360FF
:20758000136843F001031360D5F8A428B5F8A8381268D1680B43D360474A237D5168C7F8C3
:2075A000281C022202FA03F34EE7B2F5805FC8D1D8F82020D3F8C01922F48052C8F8202081
:2075C000D3F8B82942EA0100D8F81C20D3F8BC1922F47F42014342EA1122C8F81C20D3F8E5
:2075E000B429D8F8203023F4204343EA023343F48053C8F82030A4E7D2F8C4C9DCF80010D2
:2076000021F00101CCF80010D2F8A418B2F8A8C80968CA6822EA0C02CA6031E7D8F82020D4
:20762000D3F8C01922F00102C8F82020D3F8B82942EA0100D8F81820D3F8BC1922F0FF02FD
:20764000014342EA1142C8F81820D3F8B429D8F8203023F00A03134343F00103C8F82030EA
:207660006FE70EF06FFDC7F82C0C2DE7D8F82020D3F8C01922F48072C8F82020D3F8B829D7
:2076800042EA0100D8F81C20D3F8BC1922F0FF02014342EA1142C8F81C20D3F8B429D8F8C7
:2076A000203023F4206343EA022343F48073C8F8203046E790150020001000E088260020A4
:2076C000CDCCCCCCE81E00202DE9F047089F884615460021202204461E4640F03FFB4FB1BB
:2076E0003B68E3811B0C23827B687A89E3821B0C6282238340463EF027F9EB0619D4431EA8
:20770000B8B108EB000701E0013B12D317F801CDBCF12E0FF8D1C01A421E032AA8BF032281
:20772000082B03F1010AA8BF08239146C2441A4606E008280246C246A8BF08224FF0000909
:207740004FF0203341462360636004F10807204640F090FA174B23815146BB704A463846D0
:2077600040F088FA611EE31D11F801CFACF1610EBEF1190F9CBFACF1200C81F800C08B42F2
:20778000F2D1384604F10B0110F8013BA3F16102192A9CBF203B00F8013C8842F4D1182374
:2077A0002373330CA382E572099B6683E361BDE8F08700BF202020002DE9F04FDFF8889424
:2077C000D9F83408C9F8380887B0002B00F0DA8001F5FE781344DFF874B40393164601F149
:2077E0002007C24621E0002E64D0D9F86438B34200F0CC80D9F86038B34200F0FF80D9F8BB
:207800006838D9F86C18B3424BD8B14200F29981711A204639F070F8039B01369E4207F529
:2078200000770AF5007A00F0AD80D9F87058B542A7F12004D7D8751BD9F8808805F00702D9
:20784000EB080492D8F830200233934203D3D8F8382093420BD941461846059339F01CF804
:20786000059B8046002800F08C81C9F8800898F80420002A40F03481D8F82850002D00F00C
:207880007981D8F830209B1A049A02EBC303D8F80C20204602EB43224FF400714346A847E8
:2078A000BAE7B142B4D920464FF40072002140F055FAB1E74FF400723146204640F04EFA4A
:2078C000802387F89E310C2387F8A231D9F86038D44AD9F85818C4F8C6319342C4F8CA114F
:2078E00000F33481D04AD14C82FB03021A44D817C0EB621284FB0254CD4D85FB03C5C0EBD9
:207900002530C2EB821587F8A1015B1B801020F03F0001330343144487F8A031D317C3EB9E
:20792000E4142244BF4B87F89F214A1E9A4200F31981BD4BBD4883FB02311144D317C3EB24
:20794000611180FB0140BA4C84FB0254C3EB2433C1EB811487F8A531121B9B1023F03F0356
:2079600001321343084487F8A431CB17C3EBE010014487F8A311552387F8DE31AA2387F894
:20798000DF3149E7002007B0BDE8F08F4FF0FF3384F8EC3184F8ED3184F8EE3184F8EF31D1
:2079A000D9F87838C4F8E8315223237063706123A37084F8E73141230025E37084F8E631FC
:2079C000722384F8E43184F8E5314FF4F0722946A7F11C0040F0C2F95523C7F8D051C7F825
:2079E000D451C7F8D85184F8FE316FF0550384F8FC5184F8FD5184F8FF310DE700214FF481
:207A00000072204640F0AAF98A4A03CA47F81D0CEB2007F8200C582007F81F0C902047F8EB
:207A2000191C07F81E0C002302220821F820E372227307F8131CA273E37307F8102C07F8A3
:207A40000B0CD9F8600884F82C20D9F858286376121A2262D9F86808D9F86C28E376121A09
:207A60003F2020764FF0FF30A0763E20207701206377A377E37784F82D3084F82E3084F8FA
:207A80002F30626284F8300084F8313087F82610802187F82010292187F82210942187F806
:207AA00023100E2187F824100D21634A87F82510552187F8DE11AA2187F8DF1103CA5F4B8D
:207AC000C7F82700C7F82B1003CB1388A7F82F309378C7F83200C7F8361087F831309BE6FD
:207AE0004FF400720021204640F038F9049B002B4ED1D8F84030002B00F0AA80049AD8F80D
:207B000030304F49CDE9002220461122FFF7DCFDD8F840301A6C002A00F0AD80049A1B6BFC
:207B2000CDE90022474911223846FFF7CDFDD8F8448007F120044FF4E075B8F1000F3FD15C
:207B40006AE6F11A204638F0D7FE65E6FF2387F89F3187F8A13187F8A031324B4A1E9A4249
:207B60007FF7E7AEFF2387F8A33187F8A53187F8A43100E7294620464FF4007240F0EEF855
:207B80004AE6A7F1240343F804BF9A45FBD143E6D8F84030049AD8F84480002B0CBF012398
:207BA0000223C3EB02154346002B3FF435AE013D9B6CF9D198464FF40075002B3FF42CAE34
:207BC00025442034234620354446049698460EE05CF81C1B236BCDF800C000260196FFF7E9
:207BE00073FDA46C08F12008CCB1A84517D02379A44604F11C0E1122A8F12000002BE7D11F
:207C000062792669236B216842F02102CDE900E6FFF75AFDA46C08F12008002CE5D1049EF0
:207C2000FAE500BFFF03FB0083200882818080809755454118F1040824F1040830F10408A6
:207C400010F1040814F1040890150020DEADBEEF049BD9F85C18CDE9003320460822FFF7B6
:207C600033FDD8F84480B8F1000F3FF4D5AD3C464FF4F075A4E7049BCDE9003352E700BF9E
:207C800070B5394C4FF49A7303FB004393F8AB3803B970BD354D95F844C195F845319C455A
:207CA0000ED003EB430205EBC20292F848E10EF1FF36012E4FEA430231D9BEF1030F29D0A7
:207CC0004FF49A7303FB00F00444294BA4F89C1818440CF06FFF95F8DD3502467BBBD5F8AA
:207CE000303CD4F8CC0901219847D4F8C859B4F8A838D4F8C429B5F8B41019435368A5F81F
:207D0000B4101B0C1B0418435060136843F00103136070BD5E1C06F003066645D0D01344E1
:207D200005EBC303034493F855110029C8D04FF49A7303FB0043012283F89E28C0E7D4F82C
:207D4000A438D4F8C8195B79D1F8B00003F0FC0318440421D5F8303C9847D4F8C839800075
:207D6000A3F8AC0070BD00BF90150020882600202C1E002000207047704700BF014834F019
:207D8000C3B900BFD4320020084810B4D0F84C3CD0F8804C99691A682CB1234600F64C403E
:207DA0005DF8044B18475DF8044B704788260020014834F0A9B900BF38330020084810B46A
:207DC000D0F8B03CD0F8E44C99691A682CB1234600F54B605DF8044B18475DF8044B70472F
:207DE00088260020014834F08FB900BF9C330020084810B4D0F8143DD0F8484D99691A6844
:207E00002CB1234600F614505DF8044B18475DF8044B704788260020014834F075B900BF3C
:207E200000340020084810B4D0F8783DD0F8AC4D99691A682CB1234600F678505DF8044B70
:207E400018475DF8044B704788260020027A0B4B0168134410B413F8013CCC5824F00104BF
:207E6000CC50CA181368DB07FCD4027D5DF8044B0223934043F00C034B607047CCF104084F
:207E80002DE9F041D0F80080294DD8E90474A0613A7DD4F800C00223064603FA02F238685E
:207EA00042F00C024260227D934043F00C03CCF80430397AD8F818206B1813F801EC50F8B6
:207EC0000E3023F0010340F80E30237A2B4413F8013C5CF803E02EF0010E4CF803E05CF8A4
:207EE00003E04EF0020E4CF803E03AF003FDD8F81C20217A20683AF0FDFC3B7A38683268BF
:207F00002B44526813F8011C435843F001034350237A20681D4415F8011C435843F0010329
:207F20004350536843F003035360BDE8F08100BFCCF1040810B1036882889A61704700BFC2
:207F400010B1036882889A62704700BF08B51D200DF0C2FA08B183794BB11E200DF0BCFA24
:207F600008B1837903B108BD5523C38008BD5523C380F2E7D3B20F2B2AD84FF0000C10B4EF
:207F80006346144C04E00133252B1DD014F803CF6045F8D194F801C08C45F4D10E4902EB10
:207FA000420401EB840201F1AC000C4903EB43030B4400EB840093F85A315DF8044BC2F8B0
:207FC000B43082F8AC30704700205DF8044B70470020704774810408000000201C80040895
:207FE00010B40C4C002304F6C45C01E0152B0CD003EB430201331CF802108142F6D12244AE
:020000040800F2
:208000005DF8044B92F9C60D70474FF0FF305DF8044B70478826002030B40023114C124D4D
:2080200004E001331E2B19D054F8085FA842F8D125798D42F5D10D4C0D4802EB420504EB8C
:20804000C30300EB850293F8CD31C2F8B430AC3000EB850082F8AC3030BC7047002030BC70
:20806000704700BFE4810408002C01401C80040800000020F0B110B504460F4894F804E06D
:20808000002300F6C45C01E0152B11D003EB430201331CF802107145F6D10244617992F9F0
:2080A000C62D2068D3B20F2B02D8BDE81040B3E7002010BD00207047882600200348D0F878
:2080C0007C3113B100F5B67018477047000000200348D0F8A03113B100F5C87018477047F3
:2080E000000000200348D0F8C43113B100F5DA7018477047000000200348D0F8E83113B12F
:2081000000F5EC7018477047000000200348D0F80C3213B100F5FE7018477047000000202A
:208120000348D0F8303213B100F5087018477047000000200348D0F8543213B100F5117090
:2081400018477047000000200348D0F8783213B100F51A7018477047000000200348D0F8A0
:208160009C3213B100F5237018477047000000200348D0F8C03213B100F52C70184770473F
:20818000000000200348D0F8E43213B100F5357018477047000000200348D0F8083313B1F0
:2081A00000F53E7018477047000000200348D0F82C3313B100F547701847704700000020CE
:2081C0000348D0F8503313B100F5507018477047000000200348D0F8743313B100F559701E
:2081E00018477047000000200348D0F8983313B100F5627018477047000000200E4B013818
:2082000000B500EBC00003EB80000C4BD0F86C0183B098420CBFA020A12037F0CDFE084B66
:208220009A6C42F004029A649B6C03F004030193019B03B05DF804FB000000200000024068
:2082400000100240F0B50138194C00EBC00004EB80041D461748D4F86C3183B083420CBF7D
:20826000A020A1200E46174637F0A6FE124B9A6C42F004029A649B6C94F98101C4F87C61B9
:2082800003F004030193B909C4F88451019B39F0AFF894F98131002B08DB5809074903F0A0
:2082A0001F03012202FA03F341F8203003B0F0BD00000020000002400010024000E100E029
:2082C000800AA0F58010542806D8044B1B5C0B2B02D8034AD0567047002070471C80040816
:2082E000BCF104080120FEF7CFBF00BF0220FEF7CBBF00BF0420FEF7C7BF00BF0820FEF787
:20830000C3BF00BF1020FEF7BFBF00BF4FF47870FEF7BABF4FF47C40FEF7B6BF30B103686C
:2083200082881B691A4214BF01200020704700BF70B50C4686B016460546D8B1036803F18D
:2083400038439B0A0D4A134493F8B80237F034FEAA882868059604F01303CDE9012301A9C6
:20836000C4F34113C4F38104CDE9033433F0C6FD06B070BD4FF0FF33E4E700BF1C8004085D
:2083800000B1D5E770472DE9F84FC24F642303FB00730646D3F8344C002C00F06F81D3F8E5
:2083A0003CACBAF1000F04D09AF80630002B40F06581642303FB0673D3F8405C1DB1AB79E7
:2083C000002B40F05B81731CDBB2BAF1000F04D015228AF806208AF8073015B11622AA710B
:2083E000EB714FF0640909FB06F907EB090894F8280037F0E1FD294650463CF0FFFE98F8F8
:20840000463C98F8442C002B14BF3E211E215046FFF7B6FF98F8463C98F8452C28469E4D91
:20842000002B14BF3E211E214D44FFF7A9FF4C22002128463FF092FCD8F8343CB8F8489CE3
:208440005B68C8F84C3C954B9FED957A9A68954B9FED955AC2F302221344B0EE084A93F88E
:20846000C03203F01F02914B5B68D34007EE903AF8EE677A4FF0000EC7EE275A40F214589D
:2084800007EE909A9FED8A7AF8EEE77A25EE844AC7EE274ADFED877AB0EE007AE5EE877A26
:2084A000A5EE875A74EEE72A37EE856AF7EE003AB9F5C87F0EF1010C07EE90CAD5BF642337
:2084C00032234FF4967078200344B8EEE77A07EE903A27EE257AF8EEE76AD8BF4FF4167A04
:2084E00086EE873ACABF4FF4827A41464FF4FA7101EB0A0373EE636AFCEEE67A17EE902A1A
:2085000007EE90AAB8EEE73A07EE903A23EE243AF8EEE77AC3EE276A36EEC53A72EEE66ADB
:20852000C3EE077A77EEE37AFCEEE77A17EE901AC6EE877A77EEE37AFCEEE77A17EE903ABC
:2085400003F1020A0AEB010B07EE90BAF8EE677AF0EE466AE7EE276AF4EEE64AF1EE10FA25
:2085600000F390805FFA82FABAF10F0F00F28C80323807EE900AF8EEE77A77EEC47AC7EEC4
:20858000876AFCEEE67A17EE900A5FFA80FABAF10F0F79D81FFA81FABAF1FF0F74D81FFA62
:2085A00083FABAF1FF0F6FD8120502F07F624AEA0E7313430004404A00F47F00034302EA16
:2085C00001210B43642000FB06760027C6F8503C0123C6F8583CC6F8547CC6F85C7CC6F867
:2085E000607CC6F8687CC6F86C7C28463BF02CF996F88D3C202BD9B21AD196F88C3C012BFF
:2086000016D0242386F88D3CD6F84C3C1A6822F001021A601A6822F480521A601A681A609F
:208620001A6842F001021A6086F88D1C86F88C7C94F92A00002138F0DBFE94F92A3094F810
:208640002A20002B07DB02F01F0101228A405B091A4941F8232094F92900002138F0C8FEBC
:2086600094F9293094F82920002B07DB02F01F0101228A405B09114941F82320BDE8F88FCD
:20868000E64615E701315DE7BCF10F0FF8D1002398E700BF88260020D43200200010024001
:2086A000286B6E4E1C8004080000164300000020002474490000704200FFFF0000E100E0F8
:2086C0002DE9F0477F4DC0EB001605EBC60682B0D6F8043E002B00F0B3800446070196F894
:2086E000740E37F069FC96F8743E03F01F025B090121013B01FA02F2042B0BD8DFE813F08B
:208700000500CA00D000D900C4006F49CB6A23EA0202CA623B1B05EBC30304F1010A93F85C
:20872000080E0CF0D9FE5FFA8AFA064618B1122380F807A083713B1B05EBC30393F8090E68
:208740000CF0CAFE814618B1132380F807A083713B1B05EBC30393F80A0E0CF0BDFE804650
:2087600018B1142380F807A083713C1B05EBC405484695F80C2E2E21FFF702FE95F80D2E74
:208780000E214046FFF7FCFD95F80B2E2E213046FFF7F6FDD5F8043E4C491A688B4222F0BC
:2087A00040021A604FD04A4A934263D002F58062934252D1444A916B41F400419163916B81
:2087C00021F4004191635A6842F480525A601A6852062DD43F491D68D1F8C043D1F8CC037F
:2087E000D1E9EB263243D1F8B8633243D1F8BC633243D1F8C46322433243D1F8C86325F4AC
:208800007F45324325F0BF0502432A431A605D68D1F8B42325F4706525F0040542EA144227
:208820002A43B0F5005F5A6004BFB1F8D0231A61DA6922F40062DA611A6842F040021A60CD
:2088400002B0BDE8F087204A116C41F480511164116C21F480511164B5E71F4A9342B2D1B3
:20886000194A116C41F400411164116C21F400411164A8E7144A916B41F480419163916B16
:2088800021F4804191639EE70F498B6A23EA02028A623FE70C490B6C23EA02020A6439E7AE
:2088A000094B996D114399659B6D1A400192019B30E7054BD96D1143D965DB6D1A40009208
:2088C000009B27E78826002000100240003001400038004000000020003C01402DE9F04FF4
:2088E0008146AA4BD9F80040DFF8B482D4F804B0A74DA84E9B4583B000F02281C34500F096
:208900005181A3F574439B4500F04E81A24A934514BF4FF0FF320322DBF80030B9F80410A3
:20892000208999F868A023F040034FF0010C884284F824C0CBF800301AD0B1F5807F0B4656
:20894000A8BF4FF48073022BB8BF0223DBF80000002B93FAA3F3B3FA83F308BF4FF0FF3335
:20896000013B20F0380040EAC303CBF80030218199F80C30A17A994224D088490193C2EB25
:20898000021201EBC202009292F8080E002B00F0E3800CF0A1FD019B38B1009A4E2192F8B1
:2089A0000B2EFFF7C5FC99F80C30DBF8002022F00102CBF80020DBF8002022F00202CBF843
:2089C0000020A372DBF8003043F04003CBF80030236A9A68002A00F0E980002014338446B3
:2089E00053F8101C944401EA050E31B162694AB3BEF1805F26D0B64524D053F8141C14334B
:208A000001EA050221B1B2F1805F1BD0B24219D053F80C2C0130002AE2D1237B93B1BAF12A
:208A2000000F0FD0012800F2CA80BCF1070F00F2C68000EB80029200236A1A44137B002B45
:208A400000F0BD80236A9B684FF0000A002B64D0BAF1000F02D09AF80C302BB1D9F8083072
:208A600013B11A689B889362236A62681F68236A5868236AD3F808E05368BEF1010F23F49C
:208A80008053536014DD714693689B07FCD5002F37D037F8023B93819368DB07FCD5D3689B
:208AA00008B120F8023B02390129EDDC0EF0010E536843F480535360BEF1000F0CD0936860
:208AC0009907FCD5002F45D03B7813739368DB07FCD5D36800B10370236A1B7B002B31D14B
:208AE000236A1B6983B1236AD9F874001B69984701280ED0022807D10023236203B0BDE8F3
:208B0000F08F4FF6FF73C6E7D4F820A0236A14332362236A9B68002B9AD1236A1B68002B2C
:208B20005ED0236AD3E900912162D9F800400022C3E90022D4F804B0144B9B457FF4DEAEEB
:208B40000022E9E6D9F80830002BC9D01A689B889361C5E7FF23B8E70CF0BEFC019B38B116
:208B6000009A2E2192F80B2EFFF7E2FB99F80C30DBF8002042F00102CBF80020DBF80020AB
:208B800042F00202CBF80020A3721BE7003001400080FFFF00800120003C014088260020CA
:208BA000003800400122B7E60222B5E6237B002B3FF448AFBAF1000F7FF43EAF42E7D9F8B7
:208BC000000000213CF08EFED9F8083013B11A689B889362484603B0BDE8F04FFFF750B931
:208BE00023628BE710B10022FFF7A2BB704700BF2DE9F843CB781BB900273846BDE8F883A5
:208C000000F110080D460646897840460CF0BAF807460028F0D0E8780CF05EFCB0612B78D8
:208C20000133DBB210B1C371222383710D21FFF7D9FFB069FFF77EF90F4AD2F83438632BA6
:208C4000FBD90E48DFF83C900D4C0CF085F8B08202E059F8044B54B14046A04703460028DE
:208C6000F7D0306986F8B8303CF010FCC5E7E8780CF092FC2746C0E79015002040420F00F6
:208C80008D540308E88204080E4B70B5D3F8B465002E15DD0C4C002503E0B54204F1200480
:208CA0000ED0237F0135002BF7D0E06800220028F3D0217DFFF73CFBB54204F12004F0D11B
:208CC000012070BD8826002028190020F8B590F8BE311C09013C052C0FD81B4E06EB4402D9
:208CE0000546B2F8D40203F00F0340FA03F2D20703D595F8C971012F01D00120F8BD07FA25
:208D000003F3013B184034443DF04AFB94F8E0220E49104451F8302001EBC00110698B88D4
:208D20001840EBD0002395F8BF2185F8C93108460221FFF7FDFAD5F82021136843F00803F4
:208D400038461360F8BD00BF1C8004086C360020800000F1804000F514500068704700BFDC
:208D6000800000F1804000F514500160704700BF244B2548996D254A10B441F0805199657D
:208D8000996D83B001F0805101910199016841F480710160996D41F480619965996D01F4A7
:208DA000806100910099D3F8901041F40041C3F89010FF24CA205321546250625162D3F805
:208DC0009430DB0014D4124B12490022C3F80425C3F80825C3F80C25C3F81025C3F8142596
:208DE000C3F81825C3F8001503B05DF8044B7047074A084BD2F800259A42E4D103B05DF871
:208E0000044B70470010024000700040002800400020004031666542F0B500F1F80204466A
:208E2000D0F82801474BC1B20839A3FB013183B0A36801920909013120F0FF001E6839F058
:208E40009FFDD4F8E810019A0023012984F8EC3004F1BC071AD0042918D0102966D04029A3
:208E600014D0B1F5807F5DD0B1F5806F5AD0B1F5805F63D0B1F5804F54D0B1F5803F0CBFFC
:208E80006FF0080C6FF4006C382301E06FF0080C06F118053046E95801EA0C01E950D4F819
:208EA000E81039F00DFBD4F8E830012B19D0042B17D0102B12D0402B13D0B3F5807F2DD06B
:208EC000B3F5806F2AD0B3F5805F32D0B3F5804F24D0B3F5803F06F1500502D04FF40061E4
:208EE00000E008212B68D4F828010B4310212B60144BC4F8C410C1B20839A3FB0131090952
:208F00003A46013120F0FF0039F0F4FCD4F82821136843F00203136003B0F0BD06F11C05C4
:208F20000821DFE76FF0080C0423B1E76FF4006CAEE706F11C054FF40061D3E76FF4006C67
:208F40000423A5E7CDCCCCCC2DE9F04F8E4B2DED028B1C7885B034B90124204605B0BDECB9
:208F6000028BBDE8F08F884DD5F8343808EE103A0DF0E8F8854B019093F82032002B00F0BC
:208F8000FB80834B05F69C07A3F588723D4603970026A3F5357B1C461746DBF82C3C019A38
:208FA000D31A04D4D5F8F0209342C0F2C980764B4FF49A7202FB063393F8883903F0FF02B9
:208FC0000092002B00F08280AB68A9891A68D5F828315B681FFA83F8D368C8F1160823EA7F
:208FE0000103B8F1070FD36070D9DBF8CC310133CBF8CC31D5F8303102939E4600225EF84F
:2090000004CB012191468A4660461CE0DEF800C0B9F1140FACEB00031EDC13F1080048BF0C
:2090200003F11700031109EB2019604603F1FF3C013102FA03F388450AFA0CF242EA0302EB
:209040000EF1040E08D38845E0D8C9F11503DEF800004FF01509E9E7B9F1150F67D14D482F
:20906000C2F38423C2F3441100EB830300EB8101D3F8E832D1F8E8121B0243EA011302F0B4
:209080001F0100EB8101C2F3C43200EB8202D1F8E812D2F8E8220B4343EA023383EA132240
:2090A00082EA121202F00F020F2A40D1C3F30F134FF6FF7293423AD0B3F5606F47D0BB819C
:2090C000009918EE102A20460BF0EAFD2846FFF7A3FE2E4B93F8203201369E4204F15C04A8
:2090E00007F1140705F59A75FFF657AF01210022039F8BF8C812CBF82C2C002B3FF42CAFC2
:209100004FF49A7202FB037397F8B420D7F8E80012F0020FBA6811680A6A07F59A7714BF71
:2091200042EA80020243BB420A62EDD114E7DBF8C8310133CBF8C831BEB100230093BFE793
:209140000024204605B0BDEC028BBDE8F08F9BF8452102EB42020BEBC202324492F855211C
:209160000D2AACD18023BB77AAE702990A4858223EF080FD0096A3E7084A012182F8C812DB
:20918000C2F82C3CE9E600BF90150020803700205C2900201C800408F82800208826002028
:2091A000F8B5D0F820112423C0F8A0310A68002322F001020A600B604B608B6090F805C0D7
:2091C000C0F8A83180F89C31C0F8A031C0F83831C0F8A431C0F84031C0F834314FEA8C2354
:2091E00003F480538268C0F828314FEA0C33C0F8242103F40053C04AC0F82C314FEA0C2364
:2092000003F480639142C0F8303104BF0423C0F844310379044600F5907513F001001CBFD2
:209220000422C4F8342113F0020305D0D4F8342142F00802C4F834211CF0010F0DD048B1BA
:20924000D4F8482142F00202C4F848214FF48032C4F85021002B40F0F780A84B03F12C0077
:2092600053F8042B944200F0B5809842F8D11CF0080F40F0C580D4F8A031002B00F00D81F8
:209280002423C4F8A0310B6823F0010328460B6033F074F9012815D0D4F84831002B40F059
:2092A0000A81D4F820315A6822F490425A609A68284622F02A029A601A6842F001021A60C9
:2092C0003AF084FA2379D9075ED5D4F8FC20002A00F0D080D4F80431E263802204F13C07C5
:2092E0000026E264C4F8A03020224FF48053C4E916233846C4E91166C4E914663AF0F2FA59
:20930000384632F0FDFBD4F8A431C4F89871202B656634D1626992B3E36899B279B394F8D6
:209320009C0101282BD0A4F87C117549A166754994F86000E1667449216701214FF0220CB9
:209340008842C4F8A861C4F87821666784F89C11C4F8A4C10AD094F8610084F86010012836
:20936000D4F8201100F0AF8084F86060102100222023C4F8A81184F89C21C4F8A031E26B77
:2093800023795268C4F814219B0772D5D4F80021002A64D00023C4E92C33D4F80811C4F882
:2093A000A830C4F8B8304FF48053C4F89C2004F19C061022C4F8BC3080233046C4E9281232
:2093C000C4F8AC303AF08EFA304632F099FB002866D0FEE7002C3FF44AAF94F8C831002BCC
:2093E0003FF445AFD4F8483143F00803C4F848311CF0080F4FF40043C4F858313FF43BAF83
:20940000D4F8A031002B53D02423C4F8A0310B6823F0010328460B6033F0B0F801283FF403
:2094200051AFD4F84831002B49D1D4F820315A6822F490425A609A6822F022029A609A68ED
:20944000284642F0080236E7D4F8483143F00103C4F848314FF40033C4F84C31FDE6D4F836
:20946000AC311A6842F080021A601A6842F040021A60F8BDD4F8AC21116841F48071116091
:20948000916841F001019160116841F020011160116841F01001116076E784F89C31EFE6CC
:2094A000D4F89C30C4F89461C4F8C4505860F8BD84F89C31A8E7284633F0BEFEF1E62846BC
:2094C00033F0BAFEB1E79BB22431384632F0FEFB00287FF44BAFD4F8203184F89C011A6891
:2094E00042F480721A609A6842F001029A609A6842F040029A6042E700800040A83900203F
:20950000B5980308E9980308ED98030870B5EFF31185502383F31288D0F800311B6813F038
:20952000010303D0EDB285F3118870BDD0F8A021D0F8A4110A4302F02102212A0446F1D0B9
:20954000D0E909218A424AD09CBF1A460069A26288BF531AD4F8A02198BF431A0026202AB5
:209560009BB284F8B061DDD1A2695118DAD0002BD8D094F89C21012AD4D0D4F89401A4F85D
:2095800076314FF0010C2122C4F8A861C4F87011A4F8743184F89CC1C4F8A02140B31A4AA5
:2095A00090F824E0C262194A0263E645184A42638663D4F8202108D080F824C090F825C06A
:2095C000BCF1010F0FD080F82460102100222023C4F8A81184F89C21C4F8A031A2E7012375
:2095E00080F8B0319EE7283232F070FB0028ECD1D4F8203100224021196284F89C219A686B
:2096000042F080029A608DE78D980308B1980308ED98030870B5D0F82041E3699906054690
:2096200014D5606AEB6AC0B2002B74D0296B9847D5F82041236823F480732360A36823F06A
:209640000103A360A36943F00803A361E369DA0744BF01232362E3699B0744BF0223236241
:20966000E3695E0744BF04232362E369180744BF08232362E369590614D54023236295F863
:20968000C961002E31D0D5F80031CBB12846FFF73DFF95F8B0311BB195F8C961002E4BD01D
:2096A000D5F82041D5F8003163B1E369DB0606D56B6B13B19847D5F820411023236270BDD6
:2096C000D5F82041E3691A06EFD5D5E9092393422DD0AA69D25CD2B2A2622A690133B3FB32
:2096E000F2F102FB1133AB62DFE795F8BE010BF0F3FE236823F008032360012385F8C93174
:209700000028C0D032462021FEF712FED5F80031002BBBD1D4E7EB696A69D054EB69EA6872
:209720000133B3FBF2F102FB1133EB6180E7236823F080032360B8E795F8BE010BF0CCFE1C
:20974000D5F820412368012223F00803236085F8C9210028A6D032462021FEF7E9FD9FE76D
:209760002DE9F04FDFF814931F4609EB800383B0D3F82842002C7CD0D4F8B851B74B236000
:209780006B68C4F8AC312B6B6361EB6AA361EB8EE360AB8E2361B24BA160C4F8B43195F805
:2097A00000A009EB4A03904693F95422511C06464FEA4A0B40F0B580D94499F955320133DA
:2097C00040F09A80D4F8000188B1A64B00225968884203F1240302F1010200F0E680102AFA
:2097E000F5D1A14B93F86421002A00F01881D4F8FC0088B19B4B00215A68904203F124033D
:2098000001F1010100F0A4801029F5D1964B93F86421002A00F00B816B68C4F8203195F83D
:209820002400002840F0918094F8BE010BF054FE022117F0080294F8BC9184F8C911034657
:209840001BD068B317F0110F14BF0A211A210B2217F0410F06F10106C671827114BF4023C0
:20986000202394F8BF211943FEF762FDD4F8FC305BB3204603B0BDE8F08F18F0020F0FD04E
:2098800070B14FF00B0C80F806C03B0606F1010C80F807C000F1D48094F8BF21FEF748FDA4
:2098A00018F0010FE2D048460BF016FE0028DDD00C220136C671827194F8BD210221FEF75B
:2098C00037FDD4F8FC30002BD3D195F8291095F92700890937F08CFD95F9273095F8272017
:2098E000002BC6DB61485B0902F01F02012101FA02F240F82320BCE799F954225146052089
:20990000FEF738FB00283FF45DAF4368C4F8FC308368D4F80001C4F8043100287FF455AFDD
:2099200065E751460420FEF725FB00283FF444AF4368C4F80031D9448368C4F8083199F996
:20994000553201333FF43EAFD6E736F035FB6BE7C9B2454B013901EBC10103EB81012B78C1
:2099600091F888210133DBB2002A7FF455AFD1F86C0181F889313E4B98420CBFA020A1203B
:209980000C2381F8883136F017FB3A4A6B68916C41F004019164926C02F004020192019A8B
:2099A00003F12402C4F81C2137E75FFA82F92E4B09F1FF3202EBC20203EB82032A7893F8AD
:2099C00088110132D2B200297FF411AF83F889212748D3F86C2182420CBFA020A1200B22B2
:2099E00083F8882136F0E8FA224B23499A6C42F004029A649B6C95F8282003F004030093BD
:209A0000009B48462346FEF71DFC6B68D4F8FC002833C4F8183100287FF4ECAEFCE62A78F2
:209A2000013283F865210B2283F86421DFE62A78013283F865210C2283F864216B68ECE657
:209A4000D4F820110B68012723F008030B6084F8C9712021FEF76CFC22E700BF84830408B6
:209A6000CD8C00086C0100200000002000E100E0000002400010024001740008803700202F
:209A8000BFF34F8F0549064BCA6802F4E0621343CB60BFF34F8F00BFFDE700BF00ED00E0ED
:209AA0000400FA052DE9F843BFF35F8F454A00210B46C2F894100846C2F898300133112B13
:209AC000C2F89C10C2F8A010F6D10523C2F89430BFF34F8FBFF36F8FBFF35F8F3A4C394F5B
:209AE000C2F894000026012520E0002A3AD0D4F80080637AA17AE07A1B0643EA017343EA0B
:209B00004203217B627BC7F8986043EA804343EA414343EA0243013643F00103032EC7F85F
:209B20009C8004F11004C7F8A0301CD06368227A002BDAD0D4F80080002ADAD128F01F09E8
:209B4000A3EB0909B9F1200F38BF4FF0200948463EF08AF8431E05FA03F2914508BF18469F
:209B6000C2B2C6E7FEE70523C7F89430BFF34F8FBFF36F8FFB68154C4FF6FF02134043F064
:209B80000523134A43F47A03FB60D2F8943032F073FBD7F8FC200F4BB0FBF4F042F080721B
:209BA0000021C7F8FC2059601A680B4942F001021A608B68094A43F480438B60C2F8AC01D9
:209BC000BDE8F88300ED00E0D403002040420F0000100240001000E0007000408826002050
:209BE00008B572B6FFF74CFF03689B0AA3F58013542B59D8F0B5404C14F803C0BCF10B0F8D
:209C000051D840798508002953D03C4C0CEB8C030CEB43032B4404EB8C154FF0020ED5F823
:209C20006C62374DF76880080EFA00F005EB830E3843CEF89815CEF8A825F0604FEA8C10CC
:209C4000EFF3118E502383F312882C2303FB0CF3E918D1F8942542B3C1F8B825131D294A03
:209C6000294E2C2101FB0CF10E4414310A4452F8041B19B1196052F8043C04339642F6D136
:209C800000225FFA8EFE1A608EF311882C2303FB0C552044D5F8B835D0F86C223BB3D368DE
:209CA00043F00103D360F0BD7047164A24331344D6E7124C0CEB8C030CEB430328462B440D
:209CC00004EB8C150227D5F86CE20D4DDEF80C6007FA00F026EA0000CEF80C0005EB8300CE
:209CE000C0F89815C0F8A8254FEA8C10A8E7D36823F00103D360F0BD1C8004088037002065
:209D000090150020241B0020481B002003689B0AA3F58013542B1ED80F4AD35C0B2B1AD83C
:209D200061B10E49427901EB83139208D3F86C120223C86893400343CB607047074942793F
:209D400001EB83139108D3F86C020222C3688A4023EA0203C36070471C800408803700202B
:209D600003689B0AA3F58013542B0ED8074AD25C0B2A0AD80649437901EB8212990802235C
:209D8000D2F86C228B40DB43136170471C8004088037002001490248FDF794BA241B0020A3
:209DA000002C014010B5064C064804F29451FDF789FA04F5E4610448BDE81040FDF782BAD0
:209DC00090150020002C01400044014002494FF08040FDF777BA00BF501B0020014902487F
:209DE000FDF770BA7C1B00200004004001490248FDF768BAA81B00200008004001490248E1
:209E0000FDF760BAD41B0020000C00402DE9F843194E3569F3681D400FD0DFF860804FF0F6
:209E20000047B5FA85F227FA02F3DB431F2A336105EA030503D0002DF3D1BDE8F883D8F8F9
:209E40009836A3B103F1FF3900231FFA89F9C8F89836D8F89446002CEDD023682046494655
:209E600098476468002CF8D1002DDAD1E5E7F16A1FFA81F9EDE700BF001000409015002008
:209E800001490248FDF71EBA581C00200034014001490248FDF716BA581C002000340140F8
:209EA00001490248FDF70EBA841C00200040014001490248FDF706BADC1C00200048014028
:209EC00001490248FDF7FEB9081D0020005001402DE9F0414FF40F728CB000215D485E4EB4
:209EE000DFF880813DF03AFF5C4B1A6E42F400621A661A6E02F400620092009A9A6D42F098
:209F000001029A659A6D02F001020192019A9A6D42F002029A659A6D02F002020292029AAC
:209F20009A6D42F004029A659A6D02F004020392039A9A6D42F008029A659A6D02F008026D
:209F40000492049A9A6D42F010029A659A6D02F010020592059A9A6D42F020029A659A6DE1
:209F600002F020020692069A1A6E42F400521A661A6E02F400520792079A1A6E42F480328B
:209F80001A661A6E02F480320892089A1A6E42F400321A661A6E02F400320992099A1A6EEF
:209FA00042F480221A661A6E02F480220A920A9A1A6E42F480121A661B6E03F480130B9368
:209FC0000B9B06F62C2537464FF0804106F521644246002301E054F8332091420BD0013384
:209FE0000C2BF8D100201C3735F0E6FFAF420CD057F81C1CECE71A4A02EBC3031C3793F8C8
:020000040800F2
:20A00000C80D35F0D9FFAF42F2D1164F164C4FF080413A46002301E054F8332091420BD022
:20A0200001330C2BF8D100201C3635F0C5FFAE420CD056F81C1CECE7094A02EBC3031C3614
:20A0400093F8C80D35F0B8FFAE42F2D10CB0BDE8F08100BF241B0020D08304080010024070
:20A060001C800408002C0140E08D0408800AA0F5801054280CD8074B1A5C0B2A08D8064B15
:20A0800003EB8213D3F86C22136843F001031360704700BF1C800408803700201F4B984286
:20A0A00027D003F50063984223D003F5406398421FD003F5806398421BD003F580639842C8
:20A0C00017D003F50063984213D01549154B8A681548C2F3022213448A6893F8C03240682D
:20A0E00003F01F0312F4E06F20FA03F000D0400070470B490B4B8A680B48C2F3C222134443
:20A100008A6893F8C032406803F01F0312F4605F20FA03F0ECD04000EAE700BF002C014048
:20A12000001002401C800408000000202DE9F04F93B0AB4B0193AB4BDFF8CC820024A3F60B
:20A140002465A94FDFF89CA2BB0AA3F58013542B4FF000064CD8EB5C0B2B49D818F903904F
:20A16000A24B93F8BE35012B40F0F880B9F1010F34D14FF0000B594648460CF0EFFD0CF086
:20A180007BFE037813B1542B40F0F0800BF1040B1FFA8BFBBBF1100FEDD1ACB34FF0000C0B
:20A1A0008F4A00210BE0EB5C0B2B0FD818F903304B450ED00131A14202F1E40221DA9068C3
:20A1C00003689B0AA3F58013542BECD900234B45F0D143799AF805009842EBD10136082E36
:20A1E00045D05AF81C7FBB0AA3F58013542BB2D97E4B93F8BE35013B012BEFD94FF00009A4
:20A20000B7E7BCF1000FE9D1DAF80800784B002205E00132102A03F10C0300F08F83596853
:20A220008842F6D152B29AF805103846FDF7F4FE704A406800235168884203F1010300F08E
:20A240008A80102B02F12402F5D14FF0FF336A4A03EBC30302EB830393F88831002BBDD191
:20A26000604BC6EBC60603EB8606019B9E60019B0134E433042C01937FF463AF5F4F00269D
:20A2800007F59E795E4BD3F8B435B34260DDD7F80C80B8F1000F5BD05A4BB8F804105D68B0
:20A2A000D8F800003A7C0192B1FA81F300F1384C002D02934FEA9C2CC3F11F0A74DD484A6E
:20A2C000002404E00134AC4202F1E40269D013686345F7D1424AE42303FB0424019B3B7452
:20A2E0004FF0030C0136C7F804A0C7F80C80BC6188F806C088F80760226CA36C4FEA4A05BC
:20A300000CFA05FC42EA0C022264012202FA05F51D433C4BA5641B7873B3E36C02FA0AFA65
:20A3200043EA0A03E3648161D4F894001FFA8AF1FBF7A4FE2046FBF775FE0123082E3B775B
:20A340007B7789F8113007F1200709F1180999D113B0BDE8F08FDBB2013B78E7022B7FF4F6
:20A3600008AFB9F1080F3FF404AF37E74FF0010C002C7FF415AF31E7029DC5F12F0C02FA0E
:20A380000CFC02FA0AFA1A46E36C0D0443EA0C03E3641FFA8AF18561D4F89400FBF76EFE3A
:20A3A000C8E7032C00F3EC80164AE42303FB05231869002800F0AC825422C3F808C083F898
:20A3C000E8200CF1010C0F4A83F8E9C06B1C5360064B074C93F8D5350493002283681BE0DC
:20A3E00098150020408E04080034014080370020AC0000206C010020000000202819002090
:20A400008826002090150020BCF104080132102A04F10C0400F0928261688B42F6D1417963
:20A420000068DFF8F4B252B2FDF7F6FDAA4BD0E90141E42202FB0532C2E90741594600226E
:20A440004B689C4202F1010217D0102A01F12401F6D1A24B93F86421AB46002A00F04882A4
:20A460009F48A049A04AA14BC0F8FC15C0F8F425C0F8043613B0BDE8F08FD2B2974B013A22
:20A48000E42102EBC20203EB820201FB05F392490393194492F88831B1F8E8000693002B3A
:20A4A000DED1039BA2F888015A0002EBA302C2EB422202EB824252428D4B086902EB42046E
:20A4C00004EB041403EB840C8C238A4C006803FB02F204EB4202D8F80040CC60C1E93523A7
:20A4E0003322C1F8A020C1F89CC0FFF7D7FD039B814AD418049B062B00F0F781072B7F4B26
:20A500007F49804A08BF19467F4B18BF1A46B0FBF2F2B0FBF1F17048E42303FB0503013A66
:20A5200092B20139A3F8A410A3F86C20A2650022A4F85020E26562651A690493039B1068B4
:20A5400003F150016C4B194438F06EF9049B1A6904921068036843F08003036053790C2B5C
:20A5600013D8DFE813F09A011200120012009301120012001200A1011200120012008B0127
:20A58000574A032382F8D4356AE7534AE42303FB05235969026800234FF0600C0C930F931B
:20A5A0001193CDF828C001234FF4807CCDF840C00B9322F0010202234FF00A0CCDE90DC36F
:20A5C00002600AAA37F07CFF434BE42202FB0532049B52691B680593012A4FF000031DD02C
:20A5E000042A00F09381102A00F09781402A00F09881B2F5807F00F09281B2F5806F00F045
:20A600009481B2F5805F00F09281B2F5804F00F09081B2F5803F0CBF082309233B4A1344C1
:20A62000059A93F8041F93F810CF18320823885803FA0CF318438850049B1879002840F057
:20A640003F81254BE42202FB053200231069D1690068026842F001020260DBF80420914287
:20A6600003F1010300F02881102B0BF1240BF4D14FF0FF33194A03EBC30302EB8303D3F858
:20A680006C01234B98420CBFA020A12035F094FC204A1149936CDFF884E043F004039364D5
:20A6A000E42303FB05131969936CD1F800C003F004030993099B4B7907490C2B9BBF134A37
:20A6C00002EB43030022B3F81C2FE42303FB05131A8300232BE000BF9015002000000020A3
:20A6E0008037002025400108214001082D400108943D0020C44000209815002010552200CC
:20A700004495080040771B00D0DD06001C80040800000240001002406C010020442C00207A
:20A720008C4500F000810133042B00F004815EF833100029F4D183490846D1F8B815013196
:20A74000C0F8B81500EBC301DB00C1F8BCC57344069899880A439A807B4923469022FDF700
:20A7600071FD7A4AE42303FB05254FF0000BE869026842F002020260026842F00A020260D1
:20A78000C4E91DBB2A6AC4F88C204FF44052C4F8902080231022E3672267D5F8A020C4F806
:20A7A0008820EA686A4BC1B218320839A266A3FB01214FF40072C4F88020039A654B68322C
:20A7C0001A444FF4006CD5F89C30E3660909013120F0FF00C4F884C038F08CF8039AE8699D
:20A7E0005C49A0320A4401682162416861628168A162C168E162C4E92ABBC4F8B0B0296AA3
:20A80000C4F8C4104FF4005C8023C4F8B430C4F8C8C0D5F8D830C4F8C030EB681033C4F8AF
:20A82000A030C1B24A4B0839A3FB01314FF48073C4F8B830D5F8D430C4F8A43009094FF49F
:20A840008063013120F0FF00C4F8BC3038F052F8EB69B8F804101A6822635A6862639A6812
:20A86000A263DA68E2631A68D8F8000042F002021A601A6842F00A021A602FE5334AE42378
:20A8800003FB05234FF48051596183E62F4AE42303FB0523102159617CE62C4AE42303FBED
:20A8A00005230121596175E6284AE42303FB05234FF4807159616DE6DBB20693013BD9E638
:20A8C0000AF00AFE079050B1049B0221DA79FDF72FFD079B5422DA80049B1B680593059ADE
:20A8E000536C43F400435364ABE61B491B4A0EE6164A4FF0E40808FB0B2898F8E92098F830
:20A90000E81083F8641183F86521A9E5012385E6134A022382F8D435A2E502237EE60423F5
:20A920007CE603237AE6DB0011E7052376E6062374E6072372E600239B88FFDE00235B68CA
:20A94000FFDE00BF88260020C560000890150020CDCCCCCC98150020882A1100A0BB0D0072
:20A96000803700202DE9F04F00228DB02F2107460CF0D8FAE0B1A54E4379D0F80080A6F8BB
:20A98000203C0546FDF776FB90B1446884B1DFF8B0A2002251464B689C4201F1240102F10C
:20A9A00001020FD0102AF6D1994B93F8640118B100200DB0BDE8F08F2F2283F8642183F84A
:20A9C0006501F6E7D2B2924B013A02EBC20203EB820292F88891B9F1000FE9D12F21836824
:20A9E000A2F8881140460193C6F8E08BFFF756FB884A904280F0E8804FF0010B49464046BE
:20AA00000091FFF74BFB0099C6F8E41B8249B0FBFBF2120AA1FB02328048DFF82882110961
:20AA2000A0FB013149081209C6F8EC2BA8F8A61D96F81D2C4900A8F8A41D0021C6F8F01B3A
:20AA4000C6F8E81B02F0FF01002A00F0CD8002227349D6F8E00B86F81D2C31F07FFC0122BD
:20AA6000384686F81D2C0AF037FDC8F8A80D28B12F21C180EA794E21FDF75AFC694A019B19
:20AA8000C8F8B03D916C96F8200CC8F8AC4D41F001019164916C01F0010102910299916C56
:20AAA00041F002019164926C1021C8F8B41D802102F00202C8F8BC1D4FF400710392C8F874
:20AAC000C01D4FF40061039AC8F8C41D00224FF400510C28C8F8B82DC8F8C82DC8F8CC1DCA
:20AAE00000F28580504A02EB4000B0F8387FBB46083706EB87024D49C2F8E01B4C4AC8F8DE
:20AB0000D42D514600224868844201F1240102F1010272D0102AF6D14FF0FF323C4B02EBD1
:20AB2000C20203EB8203434AD3F86C0190420CBFA020A12035F040FA3A49886C40F00400F1
:20AB40008864896C01F00401049104990022DAF804108C420AF1240A02F101024AD0102AA3
:20AB6000F5D106EB8707484633495B466022FDF769FBD7F8E00B30F0C3FF00287FF418AF0D
:20AB80000A90AB790B90602205925A0002F00202DB0003F00803079206900990B6F8202C58
:20ABA0002348089305A935F0EDFF00287FF400AFAB79B6F8201C1E489B0721D531F0BCFCA1
:20ABC000B0FA80F04009F4E64046FFF767FA1B4900F1B77000F55850A1FB0031890D0139A5
:20ABE00089B201F1010B0AE786F81C1C2FE7934617467DE75FFA82F9B3E7D2B2013A8DE724
:20AC000031F072FBB0FA80F04009D2E68826002000000020006CDC02598B4F01ABAAAAAA76
:20AC20006C320020001002401C8004082C45002068320020000002408D730008819F5E1633
:20AC40006C01002080370020F8B5830AA3F58013542B1AD814460D4AD65C0B2E15D80C4D58
:20AC6000013905EB861789B2C7F87812FFF716FAB0FBF4F2013AD7F86C02C7F8702207F52D
:20AC80001C71BDE8F84031F069BBF8BD1C800408803700202DE9F843830AA3F58013542B49
:20ACA0004FD81546434AD75C0B2F4AD8DFF8149109EB87160446D6F86C3283424FEA871896
:20ACC0003FD0013989B2C6F87812C6F86C02FFF7E5F9B0FBF5F2013AC6F8702296F8A92232
:20ACE0000023C6F87C32C6F87432C6F8803202F0FF03002A58D0304909EB080501EB8711AD
:20AD00000226D5F86C0285F8A962043131F026FB2A4B01229C4285F8A92214D0B4F1804FBB
:20AD200011D0A3F594339C420DD003F580639C4209D003F580639C4205D003F594339C425B
:20AD400001D0BDE8F88395F8A832012BF9D0D5F86C3285F8A96298681949014099601748B8
:20AD600085F8A92209EB0802022182F8A91283425A6899681BD000F50060834217D000F5CC
:20AD8000E050834213D022F00072C84422F0700221F080015A6001209960002388F8A90213
:20ADA00088F8A832BDE8F88386F8A832A3E722F47002E8E71C800408EC390020002C014086
:20ADC0008800CEFF803700202DE9F04706460868850A88B0A5F58015542DBDF840709DF8CD
:20ADE00044900C4662D8DFF8E48018F805500B2D5CD81946FFF74EFF314A2368617994F8D9
:20AE000006E002EB851AB9F1000F52D1F4469B0AA3F58013542B21D818F803000B281DD827
:20AE20004FEA4C0303F002034FEACC0C03930CF0080304936023029701934FF480774FF420
:20AE40000073CDE9067302EB801000230A4601A9059335F097FE617994F806E01EF0020FF9
:20AE6000504629D031F068FB164BA80103EB85150222D5F86C1285F8A9228D68124A2A40BB
:20AE8000062A06D0B2F5803F03D00A6842F001020A600344012283F8A9222168637971607C
:20AEA00001F13402D01800213060D15008B0BDE8F0878EF0010CAAE731F016FAD4E700BF15
:20AEC000EC39002080370020070001001C80040870B504460068830AA3F58013542B03D8BD
:20AEE0002D4EF55C0B2D00D970BDFFF7D3FE2B4BA80103EB85150222D5F86C1285F8A92223
:20AF00008D68274A2A40062A06D0B2F5803F03D00A6842F001020A60034401202168214AB5
:20AF200083F8A9022048002301E050F8332091420AD001330C2BF8D10121002036F058FA49
:20AF40001A4B01221A6070BD06EBC303012193F9C94D93F8C96D204636F04AFA002CC3DBEC
:20AF6000124D640906F01F03012101FA03F31B2E45F8243008D02E2EB6D12C2036F038FAA1
:20AF80004FF480536B6070BD192036F031FA4FF000732B6070BD00BF1C8004088037002071
:20AFA00007000100002C0140E08D040800E100E0A84BD3F80C25012A2DE9F04100F083828C
:20AFC000A54AA64CD2F88830A54943F470038C42C2F8883004D0A34A2046121B3CF04AFE6E
:20AFE0009D4BA1489C600168A04AA14D41F480710160D9684FF6FF0001400A43DA6036F049
:20B0000027FA944BD3F80805FBF776F9994A136803F4C063B3F5806FD2F8803023F4807364
:20B02000C2F8803049D0944B944AD3F8D087D3F8D867D3F8DC779368D26803F00C030C2B18
:20B0400013D0082B15D08D4A8D4C136843F480331360D4F80C0E04E0D4F80C3E1B1A642BC9
:20B060002AD813689B03F7D506E002F00302032AE9D1824B824C1B68804A9368D26803F015
:20B080000C030C2B36D0042B38D07C4A136843F480731360D4F80C0E04E0D4F80C3E1B1A3A
:20B0A000022B09D813685905F7D5536823F0FE4343F0804353602DE0FEE71368714923F4E7
:20B0C000C06343F4007313606B68322000FB03F3A1FB031351699B0C480503F1010306D5E7
:20B0E00000E023B15169490503F1FF33F9D4614B5B6998E702F00302022AC6D15F4A1368D4
:20B10000536823F0FE4343F08043536036F0A0F90028D1D1594AD2F8943043F00103C2F8CC
:20B120009430D4F80C0E04E0D4F80C3E1B1A022BC2D8D2F894309B07F6D5D2F8983043F0AF
:20B140000103C2F89830D4F80C0E4C4A04E0D4F80C3E1B1A022BAFD8D2F898309907F6D50D
:20B16000936803F00C030C2B00F07181136823F080731360D4F80C0E404A04E0D4F80C3E5B
:20B180001B1A022B98D813689B01F7D4D0683E49731E014048EA03130B4343EA072343F04A
:20B1A0008053D3601368354943F080731360D36843F08073D360D4F80C2E05E0D4F80C3E62
:20B1C0009B1A022B3FF678AF0B689801F6D5264B1A6811070BD41A6822F00F0242F008028F
:20B1E0001A601B6803F00F03082B00D0FEE7234B1A68920140F11481D968DA68DB6801F065
:20B2000003010329C2F303120CBF204920490132B1FBF2F21949C3F3062302FB03F3CA686E
:20B22000C2F3416201325200B3FBF2F3194A934206D98B688B6823F0F00343F080038B60FA
:20B240000E4A936843F003039360D4F80C1E41F2883027E00020004000ED00E000F0012049
:20B2600000000008D8F10120002002400003FA050000002000700040901500200010024091
:20B280008037002083DE1B430C809F0100127A000024F40000B4C404D4F80C3E5B1A83427C
:20B2A00000F2D480936803F00C030C2BF4D19368B64943F4E0639360936823F47C5343F4D0
:20B2C000E0639360936823F0F00393600B6803F00F03082B00F2A580AD4CAE4EA36823F46B
:20B2E000E063A360A36823F46053A36030F0C4FFA368C3F30313334493F8543F03F01F03CC
:20B30000D840686036F0A4F8002840F0DB80D4F88820A14BA14922F00302C4F88820D4F847
:20B32000882022F00C02C4F88820D4F8882022F03002C4F88820D4F8882022F0C002C4F8C1
:20B340008820D4F8882022F44072C4F88820D4F8882022F44062C4F88820D4F8882022F48B
:20B360004052C4F88820D4F8882022F44042C4F88820D4F8882022F44032C4F88820D4F83B
:20B380009C2022F00302C4F89C20D4F8882022F0407242F00072C4F88820D4F8882022F09C
:20B3A0004062C4F88820D4F8882022F0405242F00052C4F88820D4F8882022F0404242F04D
:20B3C0000042C4F88820A26B42F48072A263A26B22F48072A263724A5A601A6822F4FE4225
:20B3E00042F400521A601A6842F060021A60674A1160D3F80435A26802F00C02082A04D085
:20B400000C2A44D0042A40D06B68614A9268C2F30312164496F8542FD3406B60BDE8F08103
:20B42000E4E60B6823F00F0343F008030B60D4F80C2E41F288300B6803F00F03082B3FF432
:20B440004BAFD4F80C3E9B1A8342F4D9CEE6D36803F0030290457FF42FAE013E03F0F00265
:20B46000B2EB061F7FF428AE03F4FE42B2EB072F7FF422AE03F07842B2F1805F7FF41CAE08
:20B4800013F0CC6F3FF4A3AE16E6464BBDE7E168E26801F003010229C2F3031202F1010246
:20B4A00008BF404BB3FBF2F3394AD168D268C1F3062103FB01F1C2F3416301335B00B1FB52
:20B4C000F3F3A2E792E6324A374C0021C3F80C15D4F80C1E136843F48073136004E0D4F8CB
:20B4E0000C3E5B1A022B3CD813685D05F7D55368274D43F0804353600121D4F80C0E9160D2
:20B5000041F2883204E0D4F80C3E1B1A934228D8AB6803F00C03042BF5D1244B214A5A609C
:20B5200035F096FFE8B94FF480732B602B60D4F80C1E174B04E0D4F80C2E521A022A10D8A2
:20B540001A6812F00072F6D14FF480504FF0FF31D8609A611962D3F8942042F40002C3F88C
:20B5600094204FF0E02300221A615A619A6172B60F49104A0B68106823F0070343F0010369
:20B580000B6080F3088853689847FEE700200240001002401C8004080020004004070400F3
:20B5A0007FBB22200024F4008037002000000020000001400000FF1F10B504460220FDF77C
:20B5C000C7FB042C034628BF00240120FDF7C0FB9C420AD128B10B4A936803F00303032B4C
:20B5E00000D010BDD368DB07FBD42046FAF784FE0028F6D021460220FDF7B2FB72B6FEF7B4
:20B600003FFA00BF001002400548D0F8F03723B1DB6A13B100F5FE6018470248704700BF55
:20B6200090150020808F040838B5184CD4F8103E1B8843B9164D002384F81C3E85F8E83728
:20B64000C5F8E43738BDD4F8142E002AF2DD012A09D0D4F8183E59880D4DA4F81E1E0123B9
:20B6600084F8203EE7E7D4F8181E8A8849880132521A9A42F0D1064DD5F8F03700221B6914
:20B68000C5F81C2805F5FE609847D4E780370020901500200748D0F8EC371BB1064B93F839
:20B6A000203E0BB100207047D0F8F03700F5FE605B681847901500208037002030B4154A56
:20B6C000154D92F8E83705F624642344036095F81C3E446092F8E807834292F8E80712D8E6
:20B6E000834204D3002030BCC1E90000704792F8E827002BC2F180020CBF0120022030BC4E
:20B70000C1E9002370471B1A0022012030BCC1E90032704790150020803700200E4B0F4A60
:20B7200093F8E81792F81C0E93F8E827904293F8E8270CD8904238BF93F8E827D3F8E43798
:20B740003ABFC2F180028018002018447047D3F8E437801A184470479015002080370020C1
:20B7600030B51C4C1C4D94F8E83794F8E81785B005F624621344029395F81C3E03928B42F2
:20B780001DD894F8E827934211D294F8E8170193C1F180010091D3B9012208B93F2906D9C7
:20B7A0000023694602A83AF04BF895F81C3E94F8E807C01AB0FA80F0400905B030BD94F8D3
:20B7C000E8170022591A019200910122E5E719440222E2E790150020803700202DE9F04393
:20B7E000164685B0002935D0441E254D254F04EB01084FF0000901E0A0452BD095F81C0E8A
:20B8000014F8013F411C2844C9B280F8243E0B0648BF002097F8E83785F81C1E4ABF0146D1
:20B82000084685F81C9E8B4297F8E8378ABFC3F18003C01AC0183F28DED997F8E8378B423D
:20B84000DAD0114B1B78002BD6D00020FFF788FFA045D3D1694602A8FFF730FF20B1DDE943
:20B86000003213443F2B02D805B0BDE8F0830246334602A839F0E4FF05B0BDE8F08300BF2B
:20B8800080370020901500200000002030B585B0694602A8FFF712FF58B9094C04F5FE65B0
:20B8A000D4F8F03728465B6898470028F8D005B030BD0246012302A839F0C2FFEDE700BF60
:20B8C0009015002070B5124E1546D6F8EC370A46411999420F4988BF1D1A91F81C1E96F826
:20B8E000E837994282B0044603D00192FFF7CEFF019AD6F8F01708480023C6F81C382B4643
:20B900008D6A2146AC4602B0BDE87040604700BF9015002080370020801D00208C461346E6
:20B92000014662461846CDE738B52448244C0023C4F8EC3702461178022902F106022CD048
:20B940000133062BF7D11F4DD4F8F0370022C5F8182EF3B1DA6AE2B11B489047D5F8183E5E
